:020000040000fa
:080000000001040000000000f3
:020000040000fa
:04000800600d000087
:020000040000fa
:04000c00600d000083
:020000040000fa
:04001000600d00007f
:020000040000fa
:04001400600d00007b
:020000040000fa
:04001800600d000077
:020000040000fa
:04001c00600d000073
:020000040000fa
:04002000600d00006f
:020000040000fa
:04002400600d00006b
:020000040000fa
:040028004a02000088
:020000040000fa
:04002c00600d000063
:020000040000fa
:04003000600d00005f
:020000040000fa
:040034005c0200006a
:020000040000fa
:04003800600d000057
:020000040000fa
:04003c00600d000053
:020000040000fa
:04004000600d00004f
:020000040000fa
:04004400600d00004b
:020000040000fa
:04004800600d000047
:020000040000fa
:04004c00600d000043
:020000040000fa
:04005000600d00003f
:020000040000fa
:04005400c4020000e2
:020000040000fa
:04005800600d000037
:020000040000fa
:04005c00600d000033
:020000040000fa
:04006000600d00002f
:020000040000fa
:04006400600d00002b
:020000040000fa
:04006800ac010000e7
:020000040000fa
:04006c00600d000023
:020000040000fa
:04007000600d00001f
:020000040000fa
:04007400600d00001b
:020000040000fa
:04007800600d000017
:020000040000fa
:04007c00600d000013
:020000040000fa
:04008000600d00000f
:020000040000fa
:040084000c0200006a
:020000040000fa
:04008800600d000007
:020000040000fa
:04008c00600d000003
:020000040000fa
:04009000600d0000ff
:020000040000fa
:04009400600d0000fb
:020000040000fa
:04009800600d0000f7
:020000040000fa
:04009c00600d0000f3
:020000040000fa
:0400a000600d0000ef
:020000040000fa
:0400a400600d0000eb
:020000040000fa
:0400a800600d0000e7
:020000040000fa
:0400ac00600d0000e3
:020000040000fa
:0400b000600d0000df
:020000040000fa
:0400b400600d0000db
:020000040000fa
:0400b800600d0000d7
:020000040000fa
:0400bc00600d0000d3
:020000040000fa
:0400c000600d0000cf
:020000040000fa
:0400c400600d0000cb
:020000040000fa
:0400c800600d0000c7
:020000040000fa
:0400cc00600d0000c3
:020000040000fa
:0400d000600d0000bf
:020000040000fa
:0400d400600d0000bb
:020000040000fa
:0400d800600d0000b7
:020000040000fa
:04010800600d000086
:020000040000fa
:04010c00600d000082
:020000040000fa
:04011000600d00007e
:020000040000fa
:04011400600d00007a
:020000040000fa
:04011800600d000076
:020000040000fa
:04011c00600d000072
:020000040000fa
:04012000600d00006e
:020000040000fa
:04012400600d00006a
:020000040000fa
:04012800600d000066
:020000040000fa
:04012c00600d000062
:020000040000fa
:04013000600d00005e
:020000040000fa
:04013400600d00005a
:020000040000fa
:04013800600d000056
:020000040000fa
:04013c00600d000052
:020000040000fa
:04014000600d00004e
:020000040000fa
:04014400600d00004a
:020000040000fa
:04014800600d000046
:020000040000fa
:04014c00600d000042
:020000040000fa
:04015000600d00003e
:020000040000fa
:04015400600d00003a
:020000040000fa
:04015800600d000036
:020000040000fa
:04015c00600d000032
:020000040000fa
:04016000600d00002e
:020000040000fa
:04016400600d00002a
:020000040000fa
:04016800600d000026
:020000040000fa
:04016c00600d000022
:020000040000fa
:04017000600d00001e
:020000040000fa
:04017400600d00001a
:020000040000fa
:04017800600d000016
:020000040000fa
:04017c00600d000012
:020000040000fa
:04018000600d00000e
:020000040000fa
:04018400600d00000a
:020000040000fa
:04018800600d000006
:020000040000fa
:04018c00600d000002
:020000040000fa
:04019000600d0000fe
:020000040000fa
:04019400600d0000fa
:020000040000fa
:04019800600d0000f6
:020000040000fa
:04019c00600d0000f2
:020000040000fa
:0401a000600d0000ee
:020000040000fa
:0401a400600d0000ea
:020000040000fa
:0401a800600d0000e6
:020000040000fa
:0401ac00600d0000e2
:020000040000fa
:0401b000600d0000de
:020000040000fa
:0401b400600d0000da
:020000040000fa
:0401b800600d0000d6
:020000040000fa
:0401bc00600d0000d2
:020000040000fa
:0401c000600d0000ce
:020000040000fa
:0401c400600d0000ca
:020000040000fa
:0401c800600d0000c6
:020000040000fa
:0401cc00600d0000c2
:020000040000fa
:0401d000600d0000be
:020000040000fa
:0401d400600d0000ba
:020000040000fa
:0401d800600d0000b6
:020000040000fa
:100200006fc820000eff20000e01880000000000d3
:10021000000020000000e000020032000001200089
:10022000200288000c00070000a12100010020002e
:1002300011000700000020000000e0000200320072
:1002400000000200000000001a060200000000008a
:100250000040da000000fe004440a90040062000f3
:100260000000e0000300320000002000a001880030
:100270004440a8000000060091018800800078003a
:100280000000eb0015003700e280400032a0b4000f
:100290009101ba00e280400032a0b4009102ba009d
:1002a000e280400032a0b4000002eb00472bde00e9
:1002b000f507b200602ce10004003a000059eb00a1
:1002c0008301e900fdff3e00040037006128e100e2
:1002d000010032000082eb000b00070011c3ba00de
:1002e0001101ba000604e00003003a000200e00039
:1002f000e5ff3a0000000600f607b200960188000c
:1003000082007800f5ff37003159ba008301e90017
:100310000c0032002159ba008301e90008003200c4
:100320000400e00003003a00e280400032a0b40084
:10033000f5ff370011d9ba008301e900faff3a004e
:100340008100e800e180400032a0b4000000060017
:100350000000000000000000809fbe000000fa00c6
:100360008600a900e06080008000400040802000fe
:100370000080400010007800e10f50000d003a00ae
:10038000404080000000e00005003a0080608000ee
:100390000000e800d0618800606080004062880052
:1003a000100020009060880010002000706188001c
:1003b00016003700706080000000e0000a003a007c
:1003c000e0608000800040008080200000804000cd
:1003d0008000eb00010878000c2cef00102cef00df
:1003e000f0012000d0618800e060800080004000c3
:1003f00040802000008040001100200001087800ab
:10040000d602a8000021ef0005e1a8000080fa0054
:100410004f00be0000400600809fbe00821f780093
:100420000000fa0086e0a900e06080008000400043
:10043000808020000080400010007800e10f500014
:1004400010003a00706080000000a2007060880018
:10045000b01680000000d1006140600000c0ea00da
:10046000614060000080fb0061006000000040000f
:10047000b2168000d1ff2f008100610001007000e2
:10048000b01688000080fa004f0178004f00be00cf
:1004900000400600801f78000000fa008400a900d8
:1004a000806180000000a200806188000080fa0066
:1004b0004f00780000400600809fbe000000fa0058
:1004c0008460a900e060800080004000408020003f
:1004d0000080400010007800e10f500027003a0033
:1004e000404080000000e00005003a00806080008d
:1004f0000000e800d06188006060800040628800f1
:10050000e06080008000400080802000008040008b
:10051000100078000000e00005003a001000200004
:100520009060880010002000706188001300370080
:10053000e06080008000400040802000008040009b
:100540008000eb0001087800e0608000800040003f
:100550008080200000804000110020000108780009
:100560000c2cef00102cef002a2cef00d602a90073
:100570001000200070608800d622a8000080fa00d9
:100580004f00be00004006003600f800809fbe000d
:10059000829fbe00849fbe00869fbe00889fbe00d3
:1005a0000600fa000014800000408800004080002f
:1005b000cf80de00ab05070012ff2000f3d7230039
:1005c000fe0507008c0507000040780002e8b70030
:1005d000806180000000e000020032000368ef004c
:1005e0000200370002c8bf0003e8b7001014800003
:1005f000a0608800a160800080bb2000808f500038
:100600000300340040002000e0618800090037004a
:10061000a1608000c05d2000808f50000300340086
:1006200020002000e0618800020037001000200058
:10063000e0618800706080000000e00007003a0080
:10064000e06080008000400040802000008040008a
:10065000100078000000e000e1003200e06080005f
:1006600080004000408020000080400010007800a2
:100670000000e0009c003200e260800060608000ca
:1006800021802000914078004911dd0000014100e7
:10069000c08020000000410001487800e061800037
:1006a000e10f500090003400606080000000e00026
:1006b0008d003400e26080006060800010079800c8
:1006c000e361800020002000000278001100090092
:1006d0008401d8001e0390000000530020079800fa
:1006e000e360800064608000e1618000810052006e
:1006f000c919dd0081814100c18020008180410055
:10070000914078008181fb00e4608000616080009e
:100710004922dd0001024200c18020008100420028
:10072000914078008180fb00818141002100200000
:1007300001027800110009008401d8008000fd004a
:10074000814078004911dd002e0390000601410030
:10075000c08020000000410001487800e061800076
:10076000e30f500060003400e260800063608000ae
:10077000e06180006300b900800078004000200044
:1007800080037800110009008700d8000080510024
:1007900020079800e360800064608000e1618000d1
:1007a00081005200c919dd0081814100c180200013
:1007b00081804100914078008181fb00e4608000ed
:1007c00065608000e66180002100200081037800e0
:1007d000110009000703d8008000fd00818052004d
:1007e0004922dd0001024200c18020008100420058
:1007f000914078008180fb00818141002100200030
:1008000001027800110009008401d8008000fd0079
:10081000814078004911dd002e039000060141005f
:10082000c08020000000410001487800e2608000a4
:100830006760800017079800e36180004000200097
:1008400000027800110009008401d8001e03900006
:100850000000530020079800e3608000646080007f
:10086000e5618000210020000103780011000900eb
:100870008602d8008000fd0081005200c919dd0009
:1008800081814100c1802000818041009140780039
:100890008181fb00e4608000616080004922dd000e
:1008a00001024200c1802000810042009140780096
:1008b0008180fb008181410021002000010278003d
:1008c000110009008401d8008000fd0081407800fb
:1008d0004911dd002e03900006014100c080200078
:1008e0000000410001487800706080000000e000d6
:1008f0002d003200806180000000e0000b0032001b
:10090000e160800060608000c908dd0080804000f8
:10091000c0802000008040009040780003c8bf00e5
:1009200000c0400003e8b7001f0037000000eb00e4
:10093000000f7800190037001e007800800040008a
:10094000808020000080400010007800e10f5000ff
:1009500011003a001e007800800040004080200016
:1009600000804000100078000000e0000a003a001b
:10097000606080009e007800c908dd008080400033
:10098000c0802000008040009040780003c8bf0075
:1009900000c0400003e8b7001e0fe8001e0078000a
:1009a000e10f5000e4ff340061608000e0618000ee
:1009b00080804000002020008003780011000900a2
:1009c0008700d8008000fd006060880060608000c3
:1009d0000000e00002003a00100020009060880053
:1009e00020148000d060880003c8bf000080fb0096
:1009f000cf80de009b0407000004be00d0608000b2
:100a0000cf80de009704070002002000035024007e
:100a1000370407000001be000800be00e70407001d
:100a2000750407000040780003e8b70003c8bf0062
:100a30000080fb004700de00004078000080fb00e3
:100a4000610060004700dd0052168000f1f72f00c2
:100a500081006100010070005016880003c8bf00cb
:100a60008080fb00000420000080600000f0a700f0
:100a70000000ea000000ea004f00de0000407800bd
:100a80000080fb00610060004600dd00521680001f
:100a9000f1fb2f00810061000100700050168800fa
:100aa00003c8bf008080fb000002200000806000bf
:100ab00000f0a7000000ea000000ea004f00de009e
:100ac000004078000080fb00610060004500dd0010
:100ad00052168000f1fd2f008100610001007000be
:100ae0005016880003c8bf000080fb007000600043
:100af00000f0a7000000ea000000ea004f00de005e
:100b0000004078000080fb00610060004400dd00d0
:100b100052168000f1fe2f0081006100010070007c
:100b20005016880003c8bf000080fb00680060000a
:100b300000f0a7000000ea000000ea004f00de001d
:100b4000004078000080fb00610060004300dd0091
:100b50005216800071ff2f008100610001007000bb
:100b60005016880003c8bf000080fb0064006000ce
:100b700000f0a7000000ea000000ea004f00de00dd
:100b8000004078000080fb00610060004200dd0052
:100b900052168000b1ff2f0081006100010070003b
:100ba0005016880003c8bf000080fb006200600090
:100bb00000f0a7000000ea000000ea004f00de009d
:100bc000004078000080fb006100600000004000f1
:100bd00052168000d1ff2f008100610001007000db
:100be0005016880003c8bf0061406000614060008b
:100bf000614060000080fb006100600052168000d0
:100c0000e1ff2f0081006100010070005016880094
:100c10008560a9000080fa004f04be004f03be00ab
:100c20004f02be004f01be004f00be003600f9006b
:100c3000004006003a00fa00301f9800411f98005b
:100c4000ae010700bd010700dd0107002401070018
:100c500005e1a800a1e2a80012020700fb020700bc
:100c60001c2cef00010037000000000090608000a5
:100c70000000e000790032000000eb00000f780077
:100c800047003700806080008000e800d06180006d
:100c9000808f500004003a00406280009e0078007f
:100ca000808f500043003c00e060800080004000e6
:100cb0004080200000804000100078000000e0002c
:100cc00010003200e06080004900dd009e0040001e
:100cd000c0802000008040001041780080608000cb
:100ce000c901dd00e160800000e823000088b90050
:100cf00000007800008041001e0040008240780023
:100d0000190107000000eb001007980020003700d1
:100d10001e00900080004000808020000080400085
:100d2000100078000000e000160032001e00900065
:100d300080004000408020000080400010007800cb
:100d40000000e0000f003a00806080004901dd00f3
:100d50009e00900000e823000088b90000007800a1
:100d6000000041001e0040002a0107009e00900084
:100d7000c908dd001e814000c180200081004100c3
:100d8000804878001e0090000000e80010079800de
:100d90001e009000e10f5000ddff34001e0fe80040
:100da000f01f20009e007800808f5000b5ff3400b7
:100db0000100370000000000806080008000e80033
:100dc000d061800000017800110009008200d80085
:100dd0008000fd0080608800806080000000e000ee
:100de00007003a000c2cef00102cef004040800070
:100df0000000e00002003a0010002000706188004e
:100e0000706180000000e00013003200e0608000ac
:100e10008000400040802000008040008000eb0007
:100e200001087800e06080008000400080802000a1
:100e30000080400011002000010878000c2cef0019
:100e4000102cef00d602a90010002000706088006e
:100e5000d622a8002e2cef00122cef00e0608000bc
:100e6000800040008080200000804000100078005a
:100e700000f0a7000000ea000000e9004f00de00db
:100e800080407800e06080000001400060c22000e7
:100e9000000041001000780000f0a7000000ea0008
:100ea0000000e9004f00de000040780000c0600054
:100eb0000004e00010003200cb020700f061800067
:100ec00041020700e06080008000400060c2200016
:100ed000008040001100200001087800e0608000e0
:100ee00080004000e0c12000008040008000eb0056
:100ef000010878004b003700e0608000800040006f
:100f0000408020000080400090007800e060800079
:100f100000014000e0c12000000041001000780006
:100f200000f0a7000000ea000000e9004f00de002a
:100f3000008060000000e00010003200aa020700fc
:100f40000062800020020700e06080008000400016
:100f5000e0c120000080400011002000010878005e
:100f6000e06080008000400020c22000008040003f
:100f70008000eb00010878002a003700e060800064
:100f800080004000808020000080400090007800b9
:100f9000e06080000001400020c22000000041000d
:100fa0001000780000f0a7000000ea000000e9004f
:100fb0004f00de00008060000000e00019003200f9
:100fc0008902070030628000ff010700e0608000b6
:100fd0008000e80064004700811f7800519f2900cd
:100fe000811f7800ef030700e48757006400470083
:100ff000f5010700e06080008000400020c2200072
:10100000008040001100200001087800e0608000ae
:101010008000400060c22000008040008000eb00a3
:1010200001087800a0168000640060000000e00065
:10103000030032008d0207006b02070080020700e8
:10104000a0168000680060000000e000030032008d
:101050009002070064020700790207007116800001
:1010600000002400008060000000e000fefe32006e
:10107000f601070000a02900d301070009010700bd
:1010800000002a00510020000d090700f7fe37007c
:101090000200fa00004f780011118000004020008b
:1010a000008060000000e000030032001e80fb00b2
:1010b00020118800030037001e80fb0020118800eb
:1010c00000000000840207000004e000fdff320081
:1010d00020118000004078000080fa000000060027
:1010e0000400fa00dec2a900de42a800de62a90008
:1010f000dea2a900e2a2a800e0032900000f780008
:10110000f0fb2d00100798009e0090001e00780054
:1011100074020700e2a2a90010c0b300dcff0700c0
:101120000000000000118000620060000000e0008c
:10113000fcff3a0010c0b300d5ff0700000000001c
:1011400000118000620060000000e000fcff3a0037
:10115000e2a2a80020118000004078002cecb7002b
:101160000080fa00000006000600fa001007980050
:10117000414798001e0090004800de00004f7800b4
:101180001e00900010479800e2a2a90020c0b30002
:10119000bfff070000000000001180006200600037
:1011a0000000e000fcff3a001e407800b8ff070096
:1011b0000000000000118000620060000000e000fc
:1011c000fcff3a001e409000b1ff07000000000045
:1011d00000118000620060000000e000fcff3a00a7
:1011e0004e409000aaff07000000000000118000a0
:1011f000620060000000e000fcff3a00e2a2a800ec
:1012000020118000004078002cecb7000080fa002c
:10121000000006000600fa00200798000000eb001e
:10122000000f78002e0090004800de002047980054
:101230002e00900030479800e2a2a90030c0b30011
:1012400093ff0700000000000011800062006000b2
:101250000000e000fcff3a002e4090008cff0700e9
:101260000000000000118000620060000000e0004b
:10127000fcff3a003e40900085ff070000000000a0
:1012800000118000620060000000e000fcff3a00f6
:101290000040eb007eff07000080fb00000f78009d
:1012a000e2a2a8001e007800004078000080fa004a
:1012b000000006000000fa00030207000080fa00a8
:1012c000000006000200fa00000f780061cd8400e3
:1012d0004000200000017800110009008200d800c1
:1012e000800078001e0078000088b90000007800b7
:1012f000100888000080fa00000006000000fa00d4
:10130000a60107000080fa00000006000000fa00b5
:101310000421ef00200880000040a0000050a00041
:101320002008880040002000e6ff07008460a90034
:101330008c60a8000080fa00000006000000fa009f
:10134000c742a800a942a900c762a800a962a900d3
:10135000c782a800a982a900c6e2a900c6c2a90046
:10136000c6a2a900c682a900c662a900c642a900f9
:10137000c622a900c602a900d202a900d222a90051
:10138000d302a8008220a8008600a9008e00a80031
:10139000d322a8008240a80086e0a9008ee0a80021
:1013a000d242a800d262a800c162a8008200a900af
:1013b0008400a9008c00a8000080fa00000006004c
:1013c0000000fa00a1a2a900001580000080a10081
:1013d0000090a10000158800001580000050a000ba
:1013e0000060a0000070a00000158800a022a800e6
:1013f0001015800000d0a00000e0a00000f0a000c8
:1014000010158800a342a800101580000020a0003d
:101410000030a0000040a1000050a100101588007d
:10142000a222a900a202a9002115800000f021003b
:101430000100700020158800a4e2a800211580009a
:1014400000fc2f0000806000f001b3002015880030
:10145000a782a900a682a900301580000000a10083
:101460000010a1000020a1000030a100301588006c
:10147000301580000080a1000090a10000a0a10014
:1014800000b0a1003015880000c021005015880070
:10149000a042a8008560a8008d60a8000080fa0026
:1014a000000006000200fa000c2cef000e2cef00ea
:1014b000f0012000d0618800102cef00122cef000a
:1014c0001c2cef00142cef006000b800b060880006
:1014d000c160880010002000e06188001a2cef0035
:1014e00000202000406288002e2cef000000eb005e
:1014f000000f78001f0037001e00780080004000b9
:1015000040802000008040008000eb00010878004f
:101510001e00780080004000808020000080400095
:101520008000eb00010878001e0078008000400079
:10153000e0c1200000804000110020000108780078
:101540001e0078008000400020c220000080400083
:1015500011002000010878001e0078008000400083
:1015600060c22000008040008000eb00010878008d
:101570001e0fe8001e007800e10f5000deff34006f
:101580000080fa00000006000000fa00cb22a8004c
:10159000c06180000000e0000a003200803e2000b0
:1015a0009061880003003700906180000000e9002e
:1015b00090618800906180000000e000faff3c002c
:1015c00009003700400620009061880003003700c2
:1015d000906180000000e9009061880090618000c7
:1015e0000000e000faff3c00cb22a9000080fa00d6
:1015f000000006000000fa00cb02a900e2ff07008d
:101600000080fa00000006000200fa00000f7800d7
:101610009e0078006880600000f0a7000000ea00eb
:101620000000ea004f00de00004078000080fb0070
:10163000610060004d00dd0082168000f1ff2d008a
:101640008100610001007000801688009e00780013
:101650006480600000f0a7000000ea000000ea00db
:101660004f00de00004078000080fb006100600059
:101670004400dd0012178000f1fe2f0081006100a0
:1016800001007000101788009e00780062806000e2
:1016900000f0a7000000ea000000ea004f00de00b2
:1016a000004078000080fb00610060000000400006
:1016b00012178000d1ff2f0081006100010070002f
:1016c000101788001e00780000407800614060001c
:1016d00061406000614060000080fb0061006000cc
:1016e00012178000e1ff2f008100610001007000ef
:1016f000101788000080fa00000006000000fa00c1
:10170000cb02a800a0ff07000080fa00000006003e
:101710000600fa0020079800ae009000000f20009d
:10172000008060004480de00000f78001e0078001a
:10173000b5ff0700f1ff07002e0090006f0060006a
:10174000100798001e009000afff0700ebff070096
:101750000080fa00000006000600fa0040479800ea
:101760004e4090000000fb00b0618800b161800035
:10177000000f2000008060004480de00000f780031
:101780001e007800a0ff0700dcff0700b0618000aa
:101790006f006000100798001e0090009aff07007d
:1017a000d6ff07000080fa00000006000200fa00e1
:1017b000000f78001e00780093ff07008dff0700e0
:1017c0000080fa00000006000200fa00000f780016
:1017d000342cef0008003700a06180008000780002
:1017e0009e804000914078000000e800a0618800e1
:1017f00001407800d8ff0700a06180001e00400073
:10180000104078000004e000f3ff3a000080fa0086
:10181000000006000000fa0020002000e3ff07009f
:1018200080002000e1ff07000080fa0000000600b1
:101830000000fa000000eb00dcff0700f0002000d1
:10184000daff07000080fa00000006000000fa003e
:101850000000eb00d5ff070010002000d3ff0700b9
:101860000080fa00000006000000fa000000eb0013
:10187000ceff070060002000ccff07000080fa00c8
:10188000000006000000fa0080002000c7ff0700eb
:101890000000eb00c5ff07000080fa000000060012
:1018a0000000fa00c0002000c0ff07000000eb00ad
:1018b000beff07000080fa00000006000000fa00ea
:1018c00080002000b9ff07000000eb00b7ff070011
:1018d0000080fa00000006000000fa00c0002000ae
:1018e000b2ff07000000eb00b0ff07000080fa0025
:1018f000000006000000fa0090002000abff070087
:1019000040002000a9ff07000080fa000000060048
:101910000000fa00d0002000a4ff070040002000d3
:10192000a2ff07000080fa00000006000000fa0095
:10193000100020009dff0700400020009bff0700d3
:101940000080fa00000006000000fa0010002000ed
:1019500096ff07000000eb0094ff07000080fa00ec
:10196000000006000000fa00100020008fff0700b2
:10197000c00020008dff07000080fa000000060074
:101980000000fa001000200088ff070080002000ff
:1019900086ff07000080fa00000006000000fa0041
:1019a000c722a900c702a900cda2a900de82a90012
:1019b000de22a900de02a90010002000c06188001c
:1019c0002000200079ff070092ff070091ff070029
:1019d00097ff07009dff0700a3ff0700382cef00cb
:1019e0000080fa00000006000000fa00e0608000bd
:1019f0000000e00002003a00b0ff07000e003700d0
:101a0000e0608000e10f500002003a00b2ff0700e2
:101a100009003700e0608000e20f500002003a0049
:101a2000b4ff070004003700e0608000e30f5000bf
:101a300001003a00b6ff07000080fa00000006002f
:101a40000200fa000000eb00000f780002003700ef
:101a5000b6ff07001e0fe8001e007800ee0f5000d2
:101a6000fbff34000080fa00000006000000fa00ce
:101a7000e06080000000e900e0608800e060800035
:101a80000000e00001003d001c2cef000080fa0087
:101a9000000006000000fa00e06080000000e8009e
:101aa000e0608800e0608000e10f50000200340038
:101ab00010002000e06088000080fa0000000600ae
:101ac0000040da000000fe008d00a90021e2a9001c
:101ad0008500a90000000600001180006140600040
:101ae00000000600101188000111880000000600a7
:101af000889fbe008a9fbe008c1f78009700070059
:101b00009e00330003866c006450e1002e0032001a
:101b10006420e100330032006150e1002f00320008
:101b20006120e1003100320085855500eb07b000ef
:101b300009002000080420000500370008044400c4
:101b400089844c000a0031000603430087834b0060
:101b50000001530081815b00f8ff33000203be00e7
:101b60000800a0000804440089844c00f6ff3900f6
:101b7000c639dd008301730001003200130020002c
:101b80008904d1000884d3000998a300050032001d
:101b90000800a7000300a0008904d1000884d30036
:101ba0008b05e8008904d1000884d3000001eb0014
:101bb0000281d2002e00070001f0a1000cf0a70066
:101bc00001f0a000760037006420e10078003200c8
:101bd0000801be000200be00f7ff37006120e100ef
:101be000730032006000b800f3ff370000002000ef
:101bf00001f82700f0ff37000001be004200070097
:101c00000470a70003f0a10003f8a30013003a003a
:101c10006509b10010003200090035006928e100b3
:101c2000020035000100280000000500000040000f
:101c3000818048008502e900fcff3a0000000600b0
:101c4000f88f4200050035008100d1000080d300ec
:101c50008502e800fcff3a00000006008000eb006f
:101c6000000005004f89de00820178008700370000
:101c700081002000618055000b003d000b0020001a
:101c800061fe2f000100e1001d003400828171001f
:101c9000610164008904d1000884d3000000e800d9
:101ca000faff3a0071002000610064000300700038
:101cb000020060000900320061044400e0844c002e
:101cc0000988a500050032008b05e8006808e100de
:101cd00002003a008904d1000884d300f20f2000ea
:101ce0000258e10005003d00c75ddd00f907b200c4
:101cf0008980750008007800000006000bf82700b6
:101d00008b00780000000500c70ade00f107b20072
:101d1000f50fb20008003200e1cf420002003200ad
:101d20000170a00024000500810f70000100320046
:101d30000408050044000500810f700002003a000d
:101d4000140005008502e9000000400081c0480041
:101d5000fcff3b000170a000240005000004be0051
:101d6000e9ff07000003be000405be000200be003c
:101d7000e5ff0700844f7500000006000200be006a
:101d80006450e100050036006420e10002003600e6
:101d90000968a30001003a000800be000160a0002d
:101da0004f0678004f05be004f04be00000006003d
:101db000f0ff2f00f1ff2700f9ff3700889fbe00da
:101dc0008a9fbe008c1f7800e4ff0700ebff330002
:101dd00003866c006450e100240032006420e100be
:101de000270032006150e100220032006120e10052
:101df000210032008b854200eb07b1000134b800ae
:101e0000003ab8000804420089844a00013ab80048
:101e10000030b8008880400009014a000400330007
:101e20000000400081804800020149008b05e90064
:101e3000c909dd0083017000010032001300200099
:101e4000c814de004814dd004709de001200b200ad
:101e5000c808de000884700085ff070001f0a100bb
:101e60000cf0a70001f0a000cdff37006120e100d9
:101e7000cfff32000801be000200be00f7ff3700ae
:101e80006150e100fcff3a00c9ff3700881f78006d
:101e9000030478000300e00007003d00600010002c
:101ea000e080180060011900e081190002003b0089
:101eb00001f02d00030037000400070008f0a70020
:101ec00001f0a0004f04780000000600889fbe00cb
:101ed0008a9fbe00008270000402710004827100bb
:101ee000260032000004be000200be006011b800ef
:101ef0006b092000950220000182cf000a00390002
:101f00000541b1000082cf00070039000541b10052
:101f10000982cf00040039000541b1000882cf00da
:101f2000010039000541b1000542520012003200a3
:101f30000a003b0082817100610164008100d100d0
:101f40000080d3008984d3000884d3008b05e80087
:101f50000442e800f7ff3a00070037000804440095
:101f600089844c0000004800818048008b05e9000e
:101f70000442e900f9ff3a003dff07004f05be00ab
:101f80004f04be0000000600881f7800020478009d
:101f900008017800cc010700080040004f047800d9
:101fa000000006000000fa00881f78000004780096
:101fb000ea8157003fb997008800780040fc200074
:101fc000070007000000e000020035008040eb0041
:101fd000017478004f0478000080fa0000000600c9
:101fe0006200fa00889fbe008a1f78000005780012
:101ff00081047800020478008300780080f92f00c3
:102000000f004000ae0307009a979f00a9979f001a
:102010000000eb00b09f9f001885fb008a04fb00c6
:102020000a05ea004f55de0050022000808f540060
:102030000d003200e10f55000b003a000a01780054
:10204000880078002f9097009f919700030001006f
:10205000a0979f000000e0008e0032003f9897009c
:102060000000e800b09f9f000a04440050022000d6
:10207000808f5400040032000900e000e6ff3a00bf
:102080003f989700840037000000eb00909f9f006e
:10209000809f9f00f0979f00e0979f00d0979f0040
:1020a000c0979f000700370001c8200001005000c2
:1020b0000000400041c7200061007800df989700d1
:1020c00001007000d09f9f00880478000904780008
:1020d000384578008a00fb0000c820008101070015
:1020e0000000e000f0ff3a00a1c2b300814f5500ac
:1020f0000e003a00cf8897000180e900c08f9f0052
:1021000010007800c09f9f000000e00005003d0027
:102110000000ea00c09f9f005f9897000020a00089
:10212000d09f9f000904e8000f003700c09f9f0068
:102130000000eb0005003700f2ff2700820f50007f
:10214000020032006a01b9000280400009047800f0
:1021500088047800b900fb000103b100e98f50004a
:10216000f5ff3600c09f9f00e0c2b300984f1000fb
:10217000020032000080eb0019003700a0c2b3005b
:10218000d84f100007003a00cf8897000180e9007f
:10219000c08f9f0010007800a09f9f000804e800f7
:1021a000100037000000eb00a09f9f00880078001f
:1021b00005003700f3ff2700830f500002003200b4
:1021c0006a02b90004004100010478008800780028
:1021d0003101fb000203b100e90f5100f5ff3600a9
:1021e000a09f9f00984478008900fb00c0c6200093
:1021f0003c0107000000e000020032000804e80093
:10220000010037008044eb00c97f9f0080c6b30007
:1022100080cf540004003a0098cf14000a003a001e
:102220006640500006003700c0c6b30080cf54009f
:1022300005003a0098cf140003003a0065404000c2
:10224000c07f9f000804e8001801fb00e3fb2f009b
:102250008f81410081f92f008f804000a0f92f006d
:102260000f004000100007000000e00009003a00e5
:10227000e1fb2f008f804000a0f92f000f004000ed
:10228000530207000000e000020035000804e800e7
:1022900061ff37000080eb004f0578004f04be005f
:1022a0000080fa0000000600881f7800e4c6b30032
:1022b000844f5100b600320010003c006b425200c7
:1022c000844f51001800320005003c0054c2b30096
:1022d000844f5100ee00320084c5b3000f00370078
:1022e00044c6b300844f51001400320065424200de
:1022f000844f5100e9003a001000370004c7b300d2
:10230000844f5100d5003200530035006542420031
:10231000844f51005000320063424200844f51000c
:10232000de003a004c0037001181e9008208780095
:10233000f000900012417800d60037002062900033
:10234000c5c6b300854f520007003a0091027800dd
:1023500064825200840878001402be004fabde0095
:10236000860378001100370015c7b300854f52006f
:1023700003003200a5c6b300854f520006003a00a4
:102380009102780068825200840878005403be00ed
:102390004402be00050037001182e900840878007d
:1023a00014027800cfa2de00612bb9000498be00b1
:1023b0000690be00a060900088c6b30088cf500091
:1023c0000d00320028c6b30088cf500004003a0048
:1023d0000402fb00cfa2de00612bb9000800370029
:1023e00048c7b30088cf5000030032006644440061
:1023f00088cf500004003a00cfa2de00612bb90064
:102400000498be000690be003002be002003be004d
:10241000f0009000e00f5200e08f5a00e00f5b00e8
:10242000e08f5b0002003d00d4c2b300080037001b
:10243000001290000418a30002003200b4c2b300de
:10244000030037000408a3004c00320004c2b300ac
:1024500084f178004700370020629000c5c6b300c1
:10246000854f520006003a009102780064825200c3
:10247000840878001402be006033b80011003700f1
:1024800015c7b300854f520003003200a5c6b30044
:10249000854f520006003a0091027800688252008f
:1024a000840878005403be004402be0005003700d3
:1024b0001182e90084087800140278008002eb00a1
:1024c0006033b8000498be000690be00a060900083
:1024d00088c6b30088cf50000d00320028c6b30074
:1024e00088cf500004003a000482fb008002eb0019
:1024f0006033b8000800370048c7b30088cf5000e9
:10250000030032006644440088cf500004003a00c3
:102510008002eb006033b8000498be000690be0055
:10252000801090000138a300140032003002be0079
:102530002003be00e00f5200e08f5a00e00f5b0066
:10254000e08f5b000d00320081c7b300814f510066
:102550000300320081c5b300814f510007003a00eb
:10256000f000900004c3b30084f178008100e8001b
:1025700082f178008100e80071009800f00090007e
:102580008181410063009800824078003e0037005e
:10259000a0619000c4c6b3001181e90084cf51004e
:1025a000220032000a003c006442520084cf5100f5
:1025b0002500320004c2e80084cf5100130032002d
:1025c0006842520084cf51001e003a000a003700d2
:1025d00044c7b30084cf51001b0032006642420062
:1025e00084cf5100180032006942520084cf51005c
:1025f00014003a0005003700820878009200780045
:1026000040589000804878002c00370082087800fd
:1026100092007800600a9000cfa2de00612bb90022
:102620008498be008690be0024003700820878009f
:102630009200780060099000cf91de008288be0091
:102640001e0037001181e9008208780092007800ae
:102650006008900080087800180037001181e900b8
:102660008208780012027800cfa2de00612bb90048
:102670000498be000690be00f000900081814100e9
:102680006300980081c7b300220007000b003700e9
:10269000f000900082f1780006003700f000900012
:1026a000818141000204e00001003a0052c2b300ff
:1026b000824978008100e800710098000000eb007a
:1026c0004f04780000000600800178000200370007
:1026d000b15978000201e9000200e000fcff3a0075
:1026e00000000600020037000304e000060032008c
:1026f0000001780002007800b041780081cf5100dd
:10270000f9ff3a00010037000001eb0002007800f9
:1027100000000600fc874700889fbe008a9fbe001d
:102720008c9fbe008e1f78000006780080c5b30025
:1027300080cf50000a0032007740400080cf500028
:102740000a0032006940400080cf50000b00320088
:10275000b0c5200080bf9f00ae0020000a003700f7
:10276000a2c4200082bf9f0006003700b3c520002e
:1027700083bf9f008e00200003003700b4c52000f7
:1027800084bf9f000e0120003c02be002c03be004f
:102790000605be000404be0040c6b30080cf500052
:1027a000030032006540400080cf50000b003a002b
:1027b000e00f5200e08f5a00e00f5b00e08f5b00fb
:1027c00006003d006000b8006011b800040450002d
:1027d000858458000605590087855900e80f570081
:1027e0000400320040002000f00f570038003a008b
:1027f0000100370030002000e00f5400e08f5c0043
:10280000e00f5d00e08f5d0004003a00dc089000fe
:102810008d0120000100e000060032008e00e9007a
:10282000888060008fba9700e5c07800f1ef9f00c4
:102830007d012000800078008100e9000500330060
:102840008b05d1000a85d3008984d3000884d30086
:10285000f9ff3700089ebe000a96be00120037003e
:102860008d06e9008e00e900848060000fb99700b2
:10287000e2c1780082fd2f000f01410003f17e00cc
:10288000800078008100e900050033008783d100d3
:102890000683d3008582d3000482d300f9ff37007a
:1028a000049ebe000696be003c02be002c03be0085
:1028b000e00f5200e08f5a00e00f5b00e08f5b00fa
:1028c0008b0034000d00e000e5ff3c00880037007d
:1028d0002c60900081c6b300814f50000b00320085
:1028e00006003c000004e00008003200e6c0500092
:1028f000814f50004e003a0004003700c1c6b300bb
:10290000814f50004a003a00210037000800e000e3
:1029100004003a005c0890008d0120000000e000f7
:1029200006003200110009000e84d8000fb997008c
:10293000e2c07800f1ef9f007d0120001100090046
:102940000e84d8000a003700110009000e04d800d8
:102950008d06e9000e81b900020454008fb897007b
:1029600061417c0081fd2f008f80400082f07e005d
:10297000000478000800e000020032000d00e000d2
:10298000f1ff3c00cfc4de00614db90025003700e7
:10299000e00f5400e08f5c0004003a005c089000f7
:1029a0008d0120000000e000070032006171b900d5
:1029b0000800be00630107008fb99700e34178006b
:1029c000f3ef9f007d0120006171b9000800be0097
:1029d0004c0107000b0037006171b9000800be0010
:1029e000390107008d06e90000f1b9000204540026
:1029f0000fba9700e4427c0084fd2f000f024200d2
:102a000005f27e000004be00e00f5000e08f580089
:102a1000020032000d00e000efff3c004fcdde0071
:102a20008a057800089ebe000a96be003000370076
:102a3000e00f5400e08f5c00e00f5d00e08f5d0070
:102a400004003a005c0890008d0120000000e000c6
:102a5000090032006172b900612bb9000800be00a4
:102a60000a01be00da0107000fba9700644278003d
:102a7000f4ef9f007d0120006172b900612bb90065
:102a80000800be000a01be00ca0107000d003700a1
:102a90006172b900612bb9000800be000a01be00d6
:102aa000cf0107008d06e90000f2b90004045400cc
:102ab0008fba970065427c0085fd2f008f8242000f
:102ac00084f27e00009ebe000296be003c04be0062
:102ad0002c05be00e00f5400e08f5c00e00f5d00ad
:102ae000e08f5d00020034000d00e000e8ff3c00d4
:102af000e80f570010003a000c1090000038a300b7
:102b00000d003200f78f560006003e0085fd2f00b5
:102b10008f824200e5c07e0000c3b30080cf50002a
:102b2000050032008d06e90002c3b30081fd2f00cd
:102b30008f80400082f07e0078811600120e98008f
:102b40006c00900083fd2f008f8141008d8041003b
:102b5000ddfe07001c089000dc089000810f50008b
:102b600006003d0000805000000e98000c10900000
:102b70000040a100001698000f0037000100e0009f
:102b80000d003d008c109000f4806000f08f50002c
:102b900009003a007c099000fc009000810051007f
:102ba0000c09900082805000008050004240a90033
:102bb00001003400000e98004f0778004f06be0059
:102bc0004f05be004f04be00cf01b100000006005b
:102bd0000400fa00889fbe008a9fbe008c1f780008
:102be0000004780001067800f80d9000780090004d
:102bf00080855500080890008085550018089000d1
:102c00008085550028089000808555003808900080
:102c100080855500480890008085550000022200fc
:102c200090bf9f0000032300a0bf9f0008109000ea
:102c30000028a30015003a000b00e0001300340048
:102c40000b0578008a047800e20f55000100360079
:102c500029002000c801900009017800ee8057008b
:102c60005800900003000100500498000000e000ac
:102c70008c0032006808900009004000600c980049
:102c8000090555004240a900eeff3c007801900084
:102c90000200e0000c003400c80190008c007800b5
:102ca0005800900003000100500498008080eb0061
:102cb0000000e0007c003200e808900078009000fe
:102cc00000804000600c9800880c90000900e00033
:102cd0001100340009057800e28f5400010036002d
:102ce0002a002000c80190000a017800ec805700fb
:102cf0005800900003000100500498000000e0001c
:102d000068003200680890000a004000600c9800db
:102d10008a845400edff3700180990000200e0009b
:102d20000c003400c8019000e800900058009000aa
:102d300003000100500498008080eb000000e000d8
:102d400059003200e8089000180890000080400008
:102d5000600c9800a80c90000900e00011003400fd
:102d600009057800e28f5400010036002a00200097
:102d7000c80190000a017800ec80570058009000cc
:102d800003000100500498000000e00045003200fc
:102d9000680890000a004000600c98008a84540083
:102da000edff3700380990000200e0000e0034000b
:102db000e80090001808900080804000c801900052
:102dc0005800900003000100500498008080eb0040
:102dd0000000e00034003200e8089000380890005d
:102de00000804000600c9800c80c90000900e000d2
:102df0001100340009057800e28f5400010036000c
:102e00002a002000c80190000a017800ec805700d9
:102e10005800900003000100500498000000e000fa
:102e200020003200680890000a004000600c980002
:102e30008a845400edff3700081090008000eb00fa
:102e40000028a300180032000b00e0001600340038
:102e50008b04780009057800e28f540001003600e9
:102e60002a002000c80190000a017800ee80570077
:102e70005800900003000100500498000000e0009a
:102e800008003200680890000a004000600c9800ba
:102e90008a8454004240a900eeff3c008000eb0011
:102ea000010037008080eb00010078004f067800b9
:102eb0004f05be004f04be000080fa00000006006f
:102ec0000108780000000600839f68000100e00010
:102ed00002003d0060001000e08018000300e000e8
:102ee00002003d0060011100e081190005000700ab
:102ef0004f00e00002003b0060001000e08018007e
:102f0000000006006022b800060220000000d00089
:102f10008180d2000482d2008582d2000000a0000d
:102f20000202520083825a00030031000202420072
:102f300083824a000000a1000603e900f3ff3a0083
:102f400000000600efff07000400be0000000600be
:102f5000889fbe008a9fbe0030044200b0844a00b1
:102f600030054b0090854b006000b1000898be0012
:102f70000a90be000440e10005c8e10006d0e1006f
:102f800007d8e10002003100680040001008e800a6
:102f90004f05be004f04be0000000600889fbe0023
:102fa0008a9fbe003004be002005be0004185400f5
:102fb00005985c0006185d0007985d001100200070
:102fc0000440e10005c8e10006d0e10007d8e100b7
:102fd000010039008000eb00108810004f05be0092
:102fe0004f04be00000006001200fa00889fbe00d9
:102ff0008a9fbe008c9fbe00e0b79f00f1b79f0084
:1030000082bf9f0093bf9f000605be000404be0060
:103010000000eb00d0b79f00c0b79f00b0b79f0083
:10302000a0b79f0090b79f000006eb005fb197002c
:10303000cfb09700820141003fb097000200e0004e
:1030400004003d00370007007e805700c0ff0700e6
:1030500003003700330007007e805700cfff0700d2
:10306000dfb697000d00e0000c0035006fb297004e
:10307000ffb297000fbb97009fbb97001000200086
:10308000010020006011b80000027200818272000d
:1030900002037300838373001b0007000c06e80023
:1030a00001042000810f5600e0ff3a000d00e0000f
:1030b00004003d000802be000a03be007e805700e7
:1030c000a3ff07005fa897000000e00005003a009a
:1030d0001fb29700afb297003fb39700cfb39700ee
:1030e000090007006fb09700ffb097000fb9970075
:1030f0009fb997004f06be004f05be004f04be00ab
:103100000080fa0000000600010007000000060031
:10311000a4b79f00b5b79f00c6b79f00d7b79f0061
:10312000000006004f09de0082817100b3b79f00e6
:103130004f01de008180400082807000a1b79f00b7
:103140008fb097004f09de000000400002007000c1
:1031500090b79f007fa897004f01de00818040005c
:103160008280700081b79f000d0007004f3ade009b
:103170000000400004007000f0af9f00080007004e
:103180000402420085824a0006034b0087834b00fd
:10319000dfff07000802be000a03be0000000600b1
:1031a0002fb29700bfb297004fb39700dfb39700dd
:1031b00000000600881f780018002000881f780093
:1031c00089ff07008f87e9004f04780000000600a0
:1031d000801feb0084ff07008f87e90000000600d6
:1031e000889fbe008a9fbe00e00f5000e08f58000d
:1031f000e00f5900e08f59000c003d006044b8001a
:103200006055b8000000540081805c0002015d0040
:1032100083815d00180020001500070008003d00b4
:10322000180007000004eb00050037000004eb0065
:103230000f00070002003d001200070018002000e8
:10324000dcff07000800e000060032006022b80042
:103250006033b8000000520081805a0002015b0018
:1032600083815b004f05be004f04be0000000600d6
:10327000e00f5200e08f5a00e00f5b00e08f5b0030
:10328000000006006044b8006055b8000402540015
:1032900085825c0006035d0087835d0000000600f8
:1032a000889fbe008a9fbe008c1f7800e00f5000f0
:1032b000e08f5800e00f5900e08f59000d003d00ed
:1032c0006044b8006055b8000000540081805c0084
:1032d00002015d0083815d001c0020000820e100e8
:1032e00009a8e1000ab0e1000bb8e1000d003d00c3
:1032f000080037000006eb00e00f5200e08f5a0094
:10330000e00f5b00e08f5b0006003d006044b8000a
:103310006055b8000402540085825c0006035d001d
:1033200087835d00aaff07000c00e0000600320062
:103330006022b8006033b8000000520081805a005b
:1033400002015b0083815b004f0678004f05be00e1
:083350004f04be00000006005e
:020000040000fa
:10335800127a0000456d00007074000079200000aa
:1033680054720000616300006b2000002020000000
:103378002000000052650000636f000072640000c6
:10338800696e0000672e00002e2e0000202000002d
:10339800200000004564000069740000202000003f
:1033a8002020000020200000202000002020000015
:1033b80020000000446500006c6500007465000092
:1033c80020200000202000002020000020200000f5
:1033d8002000000054720000616300006b200000b0
:1033e80000250000642000002020000020200000ac
:1033f80020200000200000005265000073650000d6
:10340800746900006e6700002e2e00002e20000058
:0834180020200000200000004c
:020000040000fa
:10342000000800003a040000000000003a0c000010
:1034300010000000020000001f00010000ae990013
:10344000be99ce0099de9900ee99000002000000be
:103450006c0c00001a00000002000000686a6c009a
:10346000747a4c0000000100000200000400080013
:1034700000100000000020002b2d23003000000071
:103480004a0c00002200000002000000303132002f
:103490003334350036373800394142004344450063
:1034a00046003000313233003435360037383900c9
:1034b0006162630064656600000000007c1a8000a1
:020000040000fa
:1034c000f03fb1000180b10006003500ee030900b5
:1034d00000000000403fb1000180b100fbff3d0053
:1034e0001000b000203fb00002003500008009004d
:0834f0000000000000000600ce
:020000040000fa
:0434f80000000000d0
:020000040000fa
:0200000401f009
:04000400ff7f00007a
:00000001FF
