:020000040000fa
:080000000001040000000000f3
:020000040000fa
:04000800ac01000047
:020000040000fa
:04000c00ac01000043
:020000040000fa
:04001000ac0100003f
:020000040000fa
:04001400ac0100003b
:020000040000fa
:04001800ac01000037
:020000040000fa
:04001c00ac01000033
:020000040000fa
:04002000ac0100002f
:020000040000fa
:04002400ac0100002b
:020000040000fa
:0400280006100000be
:020000040000fa
:04002c00ac01000023
:020000040000fa
:04003000ac0100001f
:020000040000fa
:040034000e100000aa
:020000040000fa
:04003800ac01000017
:020000040000fa
:04003c00ac01000013
:020000040000fa
:04004000ac0100000f
:020000040000fa
:04004400ac0100000b
:020000040000fa
:04004800ac01000007
:020000040000fa
:04004c00ac01000003
:020000040000fa
:04005000ac010000ff
:020000040000fa
:040054005810000040
:020000040000fa
:04005800ac010000f7
:020000040000fa
:04005c00ac010000f3
:020000040000fa
:04006000ac010000ef
:020000040000fa
:04006400ac010000eb
:020000040000fa
:04006800420f000043
:020000040000fa
:04006c00ac010000e3
:020000040000fa
:04007000ac010000df
:020000040000fa
:04007400ac010000db
:020000040000fa
:04007800ac010000d7
:020000040000fa
:04007c00ac010000d3
:020000040000fa
:04008000ac010000cf
:020000040000fa
:04008400c80f0000a1
:020000040000fa
:04008800ac010000c7
:020000040000fa
:04008c00ac010000c3
:020000040000fa
:04009000ac010000bf
:020000040000fa
:04009400ac010000bb
:020000040000fa
:04009800ac010000b7
:020000040000fa
:04009c00ac010000b3
:020000040000fa
:0400a000ac010000af
:020000040000fa
:0400a400ac010000ab
:020000040000fa
:0400a800ac010000a7
:020000040000fa
:0400ac00ac010000a3
:020000040000fa
:0400b000ac0100009f
:020000040000fa
:0400b400ac0100009b
:020000040000fa
:0400b800ac01000097
:020000040000fa
:0400bc00ac01000093
:020000040000fa
:0400c000ac0100008f
:020000040000fa
:0400c400ac0100008b
:020000040000fa
:0400c800ac01000087
:020000040000fa
:0400cc00ac01000083
:020000040000fa
:0400d000ac0100007f
:020000040000fa
:0400d400ac0100007b
:020000040000fa
:0400d800ac01000077
:020000040000fa
:04010800ac01000046
:020000040000fa
:04010c00ac01000042
:020000040000fa
:04011000ac0100003e
:020000040000fa
:04011400ac0100003a
:020000040000fa
:04011800ac01000036
:020000040000fa
:04011c00ac01000032
:020000040000fa
:04012000ac0100002e
:020000040000fa
:04012400ac0100002a
:020000040000fa
:04012800ac01000026
:020000040000fa
:04012c00ac01000022
:020000040000fa
:04013000ac0100001e
:020000040000fa
:04013400ac0100001a
:020000040000fa
:04013800ac01000016
:020000040000fa
:04013c00ac01000012
:020000040000fa
:04014000ac0100000e
:020000040000fa
:04014400ac0100000a
:020000040000fa
:04014800ac01000006
:020000040000fa
:04014c00ac01000002
:020000040000fa
:04015000ac010000fe
:020000040000fa
:04015400ac010000fa
:020000040000fa
:04015800ac010000f6
:020000040000fa
:04015c00ac010000f2
:020000040000fa
:04016000ac010000ee
:020000040000fa
:04016400ac010000ea
:020000040000fa
:04016800ac010000e6
:020000040000fa
:04016c00ac010000e2
:020000040000fa
:04017000ac010000de
:020000040000fa
:04017400ac010000da
:020000040000fa
:04017800ac010000d6
:020000040000fa
:04017c00ac010000d2
:020000040000fa
:04018000ac010000ce
:020000040000fa
:04018400ac010000ca
:020000040000fa
:04018800ac010000c6
:020000040000fa
:04018c00ac010000c2
:020000040000fa
:04019000ac010000be
:020000040000fa
:04019400ac010000ba
:020000040000fa
:04019800ac010000b6
:020000040000fa
:04019c00ac010000b2
:020000040000fa
:0401a000ac010000ae
:020000040000fa
:0401a400ac010000aa
:020000040000fa
:0401a800ac010000a6
:020000040000fa
:0401ac00ac010000a2
:020000040000fa
:0401b000ac0100009e
:020000040000fa
:0401b400ac0100009a
:020000040000fa
:0401b800ac01000096
:020000040000fa
:0401bc00ac01000092
:020000040000fa
:0401c000ac0100008e
:020000040000fa
:0401c400ac0100008a
:020000040000fa
:0401c800ac01000086
:020000040000fa
:0401cc00ac01000082
:020000040000fa
:0401d000ac0100007e
:020000040000fa
:0401d400ac0100007a
:020000040000fa
:0401d800ac01000076
:020000040000fa
:100200008fc720000eff20000e01880000000000b4
:10021000000020000000e000020032000001200089
:10022000200288000c000700605e21000100200011
:1002300011000700000020000000e0000200320072
:100240000000020000000000261302000000000071
:100250000040da000000fe004440a90040052000f4
:100260000000e0000300320000002000a001880030
:100270004440a8000000060091018800800078003a
:100280000000eb0015003700e280400032a0b4000f
:100290009101ba00e280400032a0b4009102ba009d
:1002a000e280400032a0b4000002eb00472bde00e9
:1002b000f507b200602ce10004003a000059eb00a1
:1002c0008301e900fdff3e00040037006128e100e2
:1002d000010032000082eb000b00070011c3ba00de
:1002e0001101ba000604e00003003a000200e00039
:1002f000e5ff3a0000000600f607b200960188000c
:1003000082007800f5ff37003159ba008301e90017
:100310000c0032002159ba008301e90008003200c4
:100320000400e00003003a00e280400032a0b40084
:10033000f5ff370011d9ba008301e900faff3a004e
:100340008100e800e180400032a0b4000000060017
:1003500000000000000000000040da000000fe0085
:10036000889fbe008a9fbe008c1f78009d000700fa
:10037000a400330003866c006450e1002e003200bc
:100380006420e100330032006150e1002f003200b0
:100390006120e1003100320085855500eb07b00097
:1003a000090020000804200005003700080444006c
:1003b00089844c000a0031000603430087834b0008
:1003c0000001530081815b00f8ff33000203be008f
:1003d0000800a0000804440089844c00f6ff39009e
:1003e000c639dd00830173000100320013002000d4
:1003f0008904d1000884d3000998a30005003200c5
:100400000800a7000300a0008904d1000884d300dd
:100410008b05e8008904d1000884d3000001eb00bb
:100420000281d2003400070001f0a1000cf0a70007
:1004300001f0a0007c0037006420e1007e00320063
:100440000801be000200be00f7ff37006120e10096
:10045000790032006000b800f3ff37000000200090
:1004600001f82700f0ff37000001be004800070038
:100470000470a70003f0a1006509b1001600320066
:100480000d0035006828e10006003500f0ff2f0060
:10049000f1ff27000300e00013003b0001002800eb
:1004a0000000050000004000818048008502e9004e
:1004b000fcff3a0008003700f88f420002003c00c1
:1004c0008000eb00000005008100d1000080d30017
:1004d0008502e800fcff3a000300e00002003b0058
:1004e00060001000e0801800000006004f89de0068
:1004f000820178008700370081002000618055006c
:100500000b003d000b00200061fe2f000100e10008
:100510001d00340082817100610164008904d100f2
:100520000884d3000000e800faff3a0071002000c0
:1005300061006400030070000200600009003200e6
:1005400061044400e0844c000988a50005003200e5
:100550008b05e8006808e10002003a008904d10038
:100560000884d300f20f20000258e10005003d008e
:10057000c75ddd00f907b2008980750008007800ca
:10058000000006000bf827008b0078000000050033
:10059000c70ade00f107b200f50fb2000800320012
:1005a000e1cf4200020032000170a00024000500eb
:1005b000810f7000010032000408050044000500ae
:1005c000810f700002003a00140005008502e90066
:1005d0000000400081c04800fcff3b000170a0000b
:1005e000240005000004be00e9ff07000003be0070
:1005f0000405be000200be00e5ff0700844f750041
:10060000000006000200be006450e1000500360054
:100610006420e100020036000968a30001003a00ee
:100620000800be000160a0004f0678004f05be0024
:100630004f04be0000000600f0ff2f00f1ff27006e
:10064000f9ff3700889fbe008a9fbe008c1f78008c
:10065000e4ff0700ebff330003866c006450e10009
:10066000240032006420e100270032006150e100e4
:10067000220032006120e100210032008b8542001f
:10068000eb07b1000134b800003ab800080442009a
:1006900089844a00013ab8000030b80088804000e0
:1006a00009014a0004003300000040008180480036
:1006b000020149008b05e900c909dd0083017000d2
:1006c0000100320013002000c814de004814dd00d1
:1006d0004709de001200b200c808de00088470007e
:1006e00085ff070001f0a1000cf0a70001f0a000b9
:1006f000cdff37006120e100cfff32000801be00ce
:100700000200be00f7ff37006150e100fcff3a0035
:10071000c9ff3700881f7800030478000300e00059
:1007200007003d0060001000e08018006001190023
:10073000e081190002003b0001f02d0003003700aa
:100740000400070008f0a70001f0a0004f047800a3
:1007500000000600889fbe008a9fbe0000827000d5
:100760000402710004827100260032000004be0001
:100770000200be006011b8006b0920009502200045
:100780000182cf000a0039000541b1000082cf008c
:10079000070039000541b1000982cf00040039008b
:1007a0000541b1000882cf00010039000541b100c8
:1007b00005425200120032000a003b0082817100a3
:1007c000610164008100d1000080d3008984d300de
:1007d0000884d3008b05e8000442e800f7ff3a00e4
:1007e000070037000804440089844c0000004800da
:1007f000818048008b05e9000442e900f9ff3a00d6
:100800003dff07004f05be004f04be00000006007c
:100810008001780002003700815978000201e90068
:100820000200e000fcff3a0000000600881f78008c
:100830000204780008017800cc010700080040009d
:100840004f047800000006000000fa00881f7800be
:1008500000047800ea8157003fb9970088007800cb
:1008600060412000070007000000e00002003500a2
:100870008040eb00017478004f0478000080fa009b
:10088000000006006200fa00889fbe008a1f780000
:100890000005780081047800020478008300780065
:1008a00080f92f000f004000ae0307009a979f00c9
:1008b000a9979f000000eb00b09f9f001885fb00e8
:1008c0008a04fb000a05ea004f55de0050022000b2
:1008d000808f54000d003200e10f55000b003a00ec
:1008e0000a017800880078002f9097009f91970068
:1008f00003000100a0979f000000e0008e0032007e
:100900003f9897000000e800b09f9f000a04440051
:1009100050022000808f5400040032000900e000e3
:10092000e6ff3a003f989700840037000000eb0094
:10093000909f9f00809f9f00f0979f00e0979f00ef
:10094000d0979f00c0979f000700370021c7200065
:10095000010050000000400061c6200061007800e6
:10096000df98970001007000d09f9f0088047800f6
:1009700009047800384578008a00fb0020c7200071
:10098000810107000000e000f0ff3a00a1c2b300bf
:10099000814f55000e003a00cf8897000180e90092
:1009a000c08f9f0010007800c09f9f000000e000f3
:1009b00005003d000000ea00c09f9f005f9897007f
:1009c0000020a000d09f9f000904e8000f0037001e
:1009d000c09f9f000000eb0005003700f2ff2700da
:1009e000820f5000020032006a01b900028040000c
:1009f0000904780088047800b900fb000103b10005
:100a0000e98f5000f5ff3600c09f9f00e0c2b300a1
:100a1000984f1000020032000080eb0019003700f0
:100a2000a0c2b300d84f100007003a00cf8897004b
:100a30000180e900c08f9f0010007800a09f9f00f8
:100a40000804e800100037000000eb00a09f9f00a2
:100a50008800780005003700f3ff2700830f50005f
:100a6000020032006a02b90004004100010478006b
:100a7000880078003101fb000203b100e90f51004a
:100a8000f5ff3600a09f9f00984478008900fb0086
:100a9000e0c520003c0107000000e0000200320039
:100aa0000804e800010037008044eb00c97f9f0084
:100ab00080c6b30080cf540004003a0098cf1400e1
:100ac0000a003a006640500006003700c0c6b30076
:100ad00080cf540005003a0098cf140003003a007c
:100ae00065404000c07f9f000804e8001801fb003b
:100af000e3fb2f008f81410081f92f008f804000a0
:100b0000a0f92f000f004000100007000000e000d7
:100b100009003a00e1fb2f008f804000a0f92f0070
:100b20000f004000530207000000e0000200350003
:100b30000804e80061ff37000080eb004f057800f3
:100b40004f04be000080fa0000000600881f7800f5
:100b5000e4c6b300844f5100b600320010003c00e0
:100b60006b425200844f51001800320005003c00d7
:100b700054c2b300844f5100ee00320084c5b3006c
:100b80000f00370044c6b300844f510014003200f8
:100b900065424200844f5100e9003a0010003700de
:100ba00004c7b300844f5100d50032005300350014
:100bb00065424200844f51005000320063424200bf
:100bc000844f5100de003a004c0037001181e900eb
:100bd00082087800f000900012417800d6003700bb
:100be00020629000c5c6b300854f520007003a004e
:100bf0009102780064825200840878001402be00da
:100c00004fabde00860378001100370015c7b30034
:100c1000854f520003003200a5c6b300854f520035
:100c200006003a0091027800688252008408780039
:100c30005403be004402be00050037001182e900e3
:100c40008408780014027800cfa2de00612bb9007e
:100c50000498be000690be00a060900088c6b30055
:100c600088cf50000d00320028c6b30088cf500056
:100c700004003a000402fb00cfa2de00612bb900a1
:100c80000800370048c7b30088cf50000300320087
:100c90006644440088cf500004003a00cfa2de0032
:100ca000612bb9000498be000690be003002be0061
:100cb0002003be00f0009000e00f5200e08f5a00c9
:100cc000e00f5b00e08f5b0002003d00d4c2b30088
:100cd00008003700001290000418a3000200320040
:100ce000b4c2b300030037000408a3004c00320074
:100cf00004c2b30084f178004700370020629000fe
:100d0000c5c6b300854f520006003a009102780034
:100d100064825200840878001402be006033b80078
:100d20001100370015c7b300854f52000300320091
:100d3000a5c6b300854f520006003a009102780024
:100d400068825200840878005403be004402be004a
:100d5000050037001182e900840878001402780049
:100d60008002eb006033b8000498be000690be001d
:100d7000a060900088c6b30088cf50000d003200fc
:100d800028c6b30088cf500004003a000482fb005c
:100d90008002eb006033b8000800370048c7b3009a
:100da00088cf5000030032006644440088cf5000d2
:100db00004003a008002eb006033b8000498be00e3
:100dc0000690be00801090000138a300140032008d
:100dd0003002be002003be00e00f5200e08f5a0038
:100de000e00f5b00e08f5b000d00320081c7b300b5
:100df000814f51000300320081c5b300814f510083
:100e000007003a00f000900004c3b30084f17800ba
:100e10008100e80082f178008100e800710098000c
:100e2000f0009000818141006300980082407800ca
:100e30003e003700a0619000c4c6b3001181e900f4
:100e400084cf5100220032000a003c00644252006c
:100e500084cf51002500320004c2e80084cf510045
:100e6000130032006842520084cf51001e003a0045
:100e70000a00370044c7b30084cf51001b00320082
:100e80006642420084cf510018003200694252008d
:100e900084cf510014003a00050037008208780022
:100ea0009200780040589000804878002c0037006d
:100eb0008208780092007800600a9000cfa2de00dd
:100ec000612bb9008498be008690be0024003700d4
:100ed000820878009200780060099000cf91de00cf
:100ee0008288be001e0037001181e9008208780068
:100ef00092007800600890008008780018003700a1
:100f00001181e9008208780012027800cfa2de0089
:100f1000612bb9000498be000690be00f00090005e
:100f2000818141006300980081c7b300220007005f
:100f30000b003700f000900082f1780006003700c7
:100f4000f0009000818141000204e00001003a00bd
:100f500052c2b300824978008100e8007100980015
:100f60000000eb004f0478000000060080017800cc
:100f700002003700b15978000201e9000200e000e8
:100f8000fcff3a0000000600020037000304e00006
:100f9000060032000001780002007800b0417800bd
:100fa00081cf5100f9ff3a00010037000001eb004a
:100fb0000200780000000600fc874700889fbe0002
:100fc0008a9fbe008c9fbe008e1f780000067800ae
:100fd00080c5b30080cf50000a0032007740400047
:100fe00080cf50000a0032006940400080cf50009e
:100ff0000b003200d0c4200080bf9f00ae00200054
:101000000a003700c2c3200082bf9f0006003700dd
:10101000d3c4200083bf9f008e0020000300370050
:10102000d4c4200084bf9f000e0120003c02be00fb
:101030002c03be000605be000404be0040c6b3007b
:1010400080cf5000030032006540400080cf500048
:101050000b003a00e00f5200e08f5a00e00f5b00f7
:10106000e08f5b0006003d006000b8006011b80032
:1010700004045000858458000605590087855900ee
:10108000e80f57000400320040002000f00f570026
:1010900038003a000100370030002000e00f540013
:1010a000e08f5c00e00f5d00e08f5d0004003a001f
:1010b000dc0890008d0120000100e00006003200f5
:1010c0008e00e900888060008fba9700e5c0780044
:1010d000f1ef9f007d012000800078008100e90091
:1010e000050033008b05d1000a85d3008984d30025
:1010f0000884d300f9ff3700089ebe000a96be00a0
:10110000120037008d06e9008e00e900848060003f
:101110000fb99700e2c1780082fd2f000f01410056
:1011200003f17e00800078008100e90005003300b3
:101130008783d1000683d3008582d3000482d30045
:10114000f9ff3700049ebe000696be003c02be00ba
:101150002c03be00e00f5200e08f5a00e00f5b004e
:10116000e08f5b008b0034000d00e000e5ff3c00e9
:10117000880037002c60900081c6b300814f50007a
:101180000b00320006003c000004e00008003200c2
:10119000e6c05000814f50004e003a000400370076
:1011a000c1c6b300814f50004a003a002100370009
:1011b0000800e00004003a005c0890008d01200067
:1011c0000000e00006003200110009000e84d80083
:1011d0000fb99700e2c07800f1ef9f007d01200079
:1011e000110009000e84d8000a0037001100090020
:1011f0000e04d8008d06e9000e81b90002045400e7
:101200008fb8970061417c0081fd2f008f804000e6
:1012100082f07e00000478000800e0000200320046
:101220000d00e000f1ff3c00cfc4de00614db900cd
:1012300025003700e00f5400e08f5c0004003a0006
:101240005c0890008d0120000000e00007003200e3
:101250006171b9000800be00630107008fb99700f3
:10126000e3417800f3ef9f007d0120006171b90038
:101270000800be004c0107000b0037006171b90087
:101280000800be00390107008d06e90000f1b90031
:10129000020454000fba9700e4427c0084fd2f0042
:1012a0000f02420005f27e000004be00e00f500075
:1012b000e08f5800020032000d00e000efff3c001c
:1012c0004fcdde008a057800089ebe000a96be005b
:1012d00030003700e00f5400e08f5c00e00f5d004d
:1012e000e08f5d0004003a005c0890008d01200052
:1012f0000000e000090032006172b900612bb90002
:101300000800be000a01be00da0107000fba97000c
:1013100064427800f4ef9f007d0120006172b90003
:10132000612bb9000800be000a01be00ca01070017
:101330000d0037006172b900612bb9000800be00d2
:101340000a01be00cf0107008d06e90000f2b900d6
:10135000040454008fba970065427c0085fd2f007d
:101360008f82420084f27e00009ebe000296be0084
:101370003c04be002c05be00e00f5400e08f5c0072
:10138000e00f5d00e08f5d00020034000d00e00022
:10139000e8ff3c00e80f570010003a000c109000e6
:1013a0000038a3000d003200f78f560006003e0003
:1013b00085fd2f008f824200e5c07e0000c3b30090
:1013c00080cf5000050032008d06e90002c3b30053
:1013d00081fd2f008f80400082f07e007881160012
:1013e000120e98006c00900083fd2f008f81410049
:1013f0008d804100ddfe07001c089000dc08900095
:10140000810f500006003d0000805000000e980043
:101410000c1090000040a100001698000f0037004b
:101420000100e0000d003d008c109000f480600091
:10143000f08f500009003a007c099000fc009000f9
:10144000810051000c099000828050000080500003
:101450004240a90001003400000e98004f077800b8
:101460004f06be004f05be004f04be00cf01b100c5
:10147000000006000400fa00889fbe008a9fbe009c
:101480008c1f78000004780001067800f80d9000a9
:1014900078009000808555000808900080855500f0
:1014a0001808900080855500280890008085550018
:1014b00038089000808555004808900080855500c8
:1014c0000002220090bf9f0000032300a0bf9f00e6
:1014d000081090000028a30015003a000b00e0005f
:1014e000130034000b0578008a047800e20f5500e1
:1014f0000100360029002000c80190000901780091
:10150000ee8057005800900003000100500498003e
:101510000000e0008c0032006808900009004000e4
:10152000600c9800090555004240a900eeff3c0000
:10153000780190000200e0000c003400c801900027
:101540008c007800580090000300010050049800bf
:101550008080eb000000e0007c003200e808900092
:101560007800900000804000600c9800880c90008b
:101570000900e0001100340009057800e28f5400f2
:10158000010036002a002000c80190000a017800fe
:10159000ec805700580090000300010050049800b0
:1015a0000000e00068003200680890000a00400077
:1015b000600c98008a845400edff370018099000f1
:1015c0000200e0000c003400c8019000e800900028
:1015d0005800900003000100500498008080eb0048
:1015e0000000e00059003200e80890001808900060
:1015f00000804000600c9800a80c90000900e000fa
:101600001100340009057800e28f54000100360013
:101610002a002000c80190000a017800ec805700e1
:101620005800900003000100500498000000e00002
:1016300045003200680890000a004000600c9800e5
:101640008a845400edff3700380990000200e00062
:101650000e003400e80090001808900080804000e0
:10166000c801900058009000030001005004980049
:101670008080eb000000e00034003200e8089000b9
:101680003808900000804000600c9800c80c900062
:101690000900e0001100340009057800e28f5400d1
:1016a000010036002a002000c80190000a017800dd
:1016b000ec8057005800900003000100500498008f
:1016c0000000e00020003200680890000a0040009e
:1016d000600c98008a845400edff370008109000d9
:1016e0008000eb000028a300180032000b00e0008f
:1016f000160034008b04780009057800e28f54004e
:10170000010036002a002000c80190000a0178007c
:10171000ee8057005800900003000100500498002c
:101720000000e00008003200680890000a00400055
:10173000600c98008a8454004240a900eeff3c00ef
:101740008000eb00010037008080eb000100780092
:101750004f0678004f05be004f04be000080fa001f
:10176000000006000108780000000600839f680062
:101770000100e00002003d0060001000e080180061
:101780000300e00002003d0060011100e08119004b
:10179000050007004f00e00002003b006000100061
:1017a000e0801800000006006022b8000602200059
:1017b0000000d0008180d2000482d2008582d20055
:1017c0000000a0000202520083825a000300310090
:1017d0000202420083824a000000a1000603e900e1
:1017e000f3ff3a0000000600efff07000400be0010
:1017f00000000600889fbe008a9fbe0030044200a1
:10180000b0844a0030054b0090854b006000b10069
:101810000898be000a90be000440e10005c8e1003f
:1018200006d0e10007d8e100020031006800400066
:101830001008e8004f05be004f04be00000006007f
:10184000889fbe008a9fbe003004be002005be00f7
:101850000418540005985c0006185d0007985d00a8
:10186000110020000440e10005c8e10006d0e100bd
:1018700007d8e100010039008000eb00108810005b
:101880004f05be004f04be00000006001200fa0023
:10189000889fbe008a9fbe008c9fbe00e0b79f005d
:1018a000f1b79f0082bf9f0093bf9f000605be0057
:1018b0000404be000000eb00d0b79f00c0b79f003b
:1018c000b0b79f00a0b79f0090b79f000006eb0045
:1018d0005fb19700cfb09700820141003fb0970001
:1018e0000200e00004003d00370007007e80570042
:1018f000c0ff070003003700330007007e80570059
:10190000cfff0700dfb697000d00e0000c003500a8
:101910006fb29700ffb297000fbb97009fbb970075
:1019200010002000010020006011b80000027200c9
:101930008182720002037300838373001b0007001f
:101940000c06e80001042000810f5600e0ff3a0079
:101950000d00e00004003d000802be000a03be00c6
:101960007e805700a3ff07005fa897000000e000fb
:1019700005003a001fb29700afb297003fb397003f
:10198000cfb39700090007006fb09700ffb0970032
:101990000fb997009fb997004f06be004f05be00d4
:1019a0004f04be000080fa0000000600010007009e
:1019b00000000600a4b79f00b5b79f00c6b79f0000
:1019c000d7b79f00000006004f09de00828171003a
:1019d000b3b79f004f01de0081804000828070001d
:1019e000a1b79f008fb097004f09de0000004000b4
:1019f0000200700090b79f007fa897004f01de00a3
:101a0000818040008280700081b79f000d00070038
:101a10004f3ade000000400004007000f0af9f006d
:101a2000080007000402420085824a0006034b00ba
:101a300087834b00dfff07000802be000a03be00d9
:101a4000000006002fb29700bfb297004fb3970077
:101a5000dfb3970000000600881f78001800200000
:101a6000881f780089ff07008f87e9004f047800fe
:101a700000000600801feb0084ff07008f87e9004d
:101a800000000600889fbe008a9fbe00e00f500045
:101a9000e08f5800e00f5900e08f59000c003d0026
:101aa0006044b8006055b8000000540081805c00bc
:101ab00002015d0083815d00180020001500070011
:101ac00008003d00180007000004eb000500370087
:101ad0000004eb000f00070002003d0012000700a9
:101ae00018002000dcff07000800e00006003200bc
:101af0006022b8006033b8000000520081805a00b4
:101b000002015b0083815b004f05be004f04be00f5
:101b100000000600e00f5200e08f5a00e00f5b006b
:101b2000e08f5b00000006006044b8006055b8001c
:101b30000402540085825c0006035d0087835d001b
:101b400000000600889fbe008a9fbe008c1f7800a0
:101b5000e00f5000e08f5800e00f5900e08f59006f
:101b60000d003d006044b8006055b800000054000e
:101b700081805c0002015d0083815d001c0020000b
:101b80000820e10009a8e1000ab0e1000bb8e1007b
:101b90000d003d00080037000006eb00e00f52008a
:101ba000e08f5a00e00f5b00e08f5b0006003d0015
:101bb0006044b8006055b8000402540085825c009f
:101bc00006035d0087835d00aaff07000c00e000ac
:101bd000060032006022b8006033b80000005200f6
:101be00081805a0002015b0083815b004f06780010
:0c1bf0004f05be004f04be0000000600c0
:020000040000fa
:101bfc00127a0000456d000070740000792000001e
:101c0c0054720000616300006b2000002020000073
:101c1c002000000052650000636f00007264000039
:101c2c00696e0000672e00002e2e000020200000a0
:101c3c0020000000456400006974000020200000b2
:101c4c002020000020200000202000002020000088
:101c5c0020000000446500006c6500007465000005
:101c6c002020000020200000202000002020000068
:101c7c002000000054720000616300006b20000023
:101c8c00002500006420000020200000202000001f
:081c9c002020000020000000e0
:020000040000fa
:101ca4000200fa00000f7800f16f84004000200069
:101cb40000017800110009008200d800800078003b
:101cc4001e0078000088b900000078001008880021
:101cd4000080fa00000006000000fa00a6030700d6
:101ce4000080fa00000006000000fa000421ef0062
:101cf400200880000040a0000050a00020088800b8
:101d040010002000e6ff07008460a9008c60a80092
:101d14000080fa00000006000000fa00c742a80094
:101d2400a942a900c762a800a962a900c782a800a5
:101d3400a982a900c722a900c702a900c6a2a900b6
:101d4400c682a900c662a900c642a900c622a9008b
:101d5400c602a900d202a900d222a900d302a80077
:101d64008220a8008600a9008e00a800d322a80023
:101d74008240a80086e0a9008ee0a800d242a80014
:101d8400d262a800c162a8008200a8008400a90051
:101d94008c00a8000080fa00000006000000fa0091
:101da400a1a2a900001580000080a1000090a1005c
:101db40000158800001580000050a0000060a000fd
:101dc4000070a00000158800a022a8001015800053
:101dd40000d0a00000e0a00000f0a00010158800d2
:101de400a342a800101580000020a0000030a0002d
:101df4000040a1000050a10010158800a222a900f3
:101e0400a202a9002115800000f021000100700049
:101e140020158800a4e2a8002115800000fc2f00f2
:101e240000806000f001b30020158800a782a9009b
:101e3400a682a900301580000000a1000010a100b6
:101e44000020a1000030a10030158800301580006a
:101e54000080a1000090a10000a0a10000b0a1009a
:101e64003015880000c0210050158800a042a80049
:101e74008560a8008d60a8000080fa0000000600bc
:101e84003600f800809fbe00829fbe00849fbe0083
:101e9400869fbe000000fa008600a90060608000f2
:101ea40061802000000040000080400010007800a5
:101eb400e10f500012003a00606080006180200051
:101ec40000004000008040008000eb000108780022
:101ed400fe2bef0060608000e180200000004000e5
:101ee400008040001100200001087800d602a900fb
:101ef4001000200000608800d622a8001c003700d3
:101f0400006080000000e00010003a006060800083
:101f1400e180200000004000008040008000eb00d1
:101f2400010878006060800080007800a00f200025
:101f34000088b900800078006081200000804000a3
:101f4400a20f20008000eb0030fa070060608000e0
:101f5400618020000000400000804000110020004b
:101f640001087800d602a8000021ef0005e1a800ce
:101f74000080fa004f03be004f02be004f01be00b6
:101f84004f00be003600f90000400600809fbe00ee
:101f9400821f78000000fa0086e0a90060608000db
:101fa400e180200000004000008040001000780024
:101fb400e10f500010003a00006080000000a20011
:101fc40000608800b01680000000d100614060000d
:101fd40000c0ea00614060000080fb006100600016
:101fe40000004000b2168000d1ff2f008100610084
:101ff40001007000b01688000080fa004f017800dc
:102004004f00be00004006000000fa008400a90052
:102014000080fa0000400600809fbe000000fa0025
:102024008460a9006060800061802000000040009e
:102034000080400010007800e10f500018003a00c2
:10204400606080006180200000004000008040004b
:102054008000eb000108780060608000e1802000cf
:102064000000400000804000100078000000e00004
:1020740001003a00fe2bef0060608000e180200048
:10208400000040000080400011002000010878009a
:10209400d602a9001000200000608800d622a80003
:1020a4000080fa004f00be00004006003600f80031
:1020b400809fbe00829fbe00849fbe00869fbe009c
:1020c400889fbe000400fa000014800000408800cd
:1020d40000408000204088001014800020608800a8
:1020e4002160800080bb2000808f500003003400fa
:1020f4004000200040618800090037002160800012
:10210400c05d2000808f50000300340020002000b8
:102114004061880002003700100020004061880000
:10212400606080006180200000004000008040006a
:1021340010007800e10f5000ba003a00616080009e
:10214400f35f800002408000d00720000088b900bf
:1021540000007800030040008000400060812000ff
:10216400008040000208780040618000e10f5000c8
:102174009e003400f05f80000000e0009b0034000b
:1021840064608000f15f8000110798004261800064
:102194002000200080017800110009000301d8000c
:1021a4009e0290008081520061608000f25f800096
:1021b4004061800000015100d00720000088b90070
:1021c4000000780002004000800040006081200090
:1021d400008040001001780061608000f55f80009d
:1021e400d00720000088b9000000780005004000f6
:1021f40080004000608120000080400010007800d2
:102204008000410020002000000378001100090034
:102214008600d80000017800d007200000a0b90093
:10222400000078000300400080004000608120002e
:10223400008040000208780040618000e30f5000f5
:102244006a00340064608000f25f800040618000b6
:102254006300b9008000780040002000800378000b
:10226400110009008700d8008001510061608000de
:10227400f25f80004061800000015100d00720001f
:102284000088b9000000780002004000800040008f
:1022940060812000008040001001780061608000af
:1022a40011079800f55f800046618000200020003f
:1022b40080037800110009000703d80080825200cf
:1022c400d00720001e03900000b0b9000000780081
:1022d4000500400080004000608120000080400034
:1022e4001000780080004100200020008003780066
:1022f400110009008700d80000017800d0072000f1
:1023040000a0b900000078000300400080004000f5
:102314006081200000804000020878006460800032
:10232400f15f8000110798004261800040002000a6
:1023340080017800110009000301d8009e0290007a
:10234400808152006660800016079800f25f80006a
:10235400456180002000200000037800110009007e
:102364008602d80000015100d00720009e0390008f
:1023740000b8b9000000780002004000800040006e
:1023840060812000008040001001780061608000be
:10239400f55f8000d00720000088b90000007800b5
:1023a4000500400080004000608120000080400063
:1023b4001000780080004100200020000001780017
:1023c400110009008200d80000017800d007200025
:1023d40000a0b90000007800030040008000400025
:1023e400608120000080400002087800f15f8000d6
:1023f4004061800080804000d00720008001780088
:10240400110009008300d8008000fd00f05f8800ff
:1024140011608000406180000080400010608800ee
:102424002500370000608000e10f500022003a00d0
:10243400e080200010007800e10f500008003a000e
:10244400f05f800080004000608120000080400038
:1024540090007800204080000080400020408800e8
:10246400e080200010009000e10f500009003a00c5
:10247400f05f8000d007b000800040006081200041
:1024840000804000900078002040800000804000e0
:1024940020408800f15f800040618000808040001f
:1024a400d007200080027800110009008500d800c0
:1024b4008000fd00f05f88002014800050608800d8
:1024c40020408000cf80de0007f807000004be0033
:1024d40050608000cf80de0003f807000200200077
:1024e400035024009df707000001be000800be0051
:1024f40053f80700dbf7070000007800204088004d
:1025040020408000cf80de00f7f7070012ff200094
:10251400f3d723004af80700d2f707000000780039
:102524001040880010408000c200dd000030200010
:10253400008f6000104080001e0070001040880072
:1025440010408000501688008560a9000080fa00c1
:102554004f04be004f03be004f02be004f01be0039
:102564004f00be003600f900004006000000fa00eb
:10257400606080000000e00002003a0046010700ad
:102584000e00370060608000e10f500002003a0046
:10259400480107000900370060608000e20f500026
:1025a40002003a004a01070004003700606080001e
:1025b400e30f500001003a004c0107000080fa00cc
:1025c400000006000000fa00262cef00040037008b
:1025d4004d010700306180000000e8003061880090
:1025e40030618000ee0f5000f9ff34000080fa00e3
:1025f400000006000000fa00606080000000e900ae
:1026040060608800606080000000e00001003d0020
:102614000c2cef000080fa00000006000000fa0015
:10262400606080000000e8006060880060608000f6
:10263400e30f500002003400300020006060880086
:102644000080fa00000006003600fa00101f98000f
:10265400211f9800a0fd0700a3fd0700aefd0700a1
:10266400cefd070005e1a800a1e2a800ee000700e6
:102674000c2cef00010037000000000060608000b7
:10268400e18020000000400000804000100078003d
:1026940000f0a7000000ea000000e9004f00de009f
:1026a4008040780060608000e2c1200000004000ab
:1026b400000041001000780000f0a7000000ea00cc
:1026c4000000e9004f00de000040780000c0600018
:1026d4000004e00010003200a4ff070050618000f5
:1026e400b000070060608000e1c1200000004000ed
:1026f4000080400011002000010878006060800024
:10270400e1c0200000004000008040008000eb0099
:10271400010878004b003700606080006180200071
:10272400000040000080400090007800606080005d
:10273400e2c02000000040000000410010007800ca
:1027440000f0a7000000ea000000e9004f00de00ee
:10275400008060000000e0001000320083ff0700ea
:10276400606180008f00070060608000e1c020008d
:1027740000004000008040001100200001087800a3
:102784006060800061c120000000400000804000c3
:102794008000eb00010878002a00370060608000a8
:1027a400e18020000000400000804000900078009c
:1027b4006060800062c12000000040000000410011
:1027c4001000780000f0a7000000ea000000e90013
:1027d4004f00de00008060000000e00019003200bd
:1027e40062ff0700906180006e0007006060800057
:1027f4000000e800801f780070e42800801f780043
:102804000e0078000ff80700e48757000e007800e8
:102814006400070060608000e1c120000000400007
:10282400008040008000eb000108780060608000b8
:1028340061c1200000004000008040001100200021
:1028440001087800a0168000640060000000e00029
:1028540003003a0067ff070044ff070059ff070021
:10286400a0168000680060000000e00082ff3a00cb
:102874006aff07003dff070052ff07007fff370094
:102884000000fa00e2a2a800d06180000000e0008d
:102894000a003200401f2000a061880003003700b6
:1028a400a06180000000e900a0618800a0618000b0
:1028b4000000e000faff3c0009003700200320007c
:1028c400a061880003003700a06180000000e900d7
:1028d400a0618800a06180000000e000faff3c00d5
:1028e400e2a2a9000080fa00000006000000fa003d
:1028f400e282a900e2ff07000080fa00000006005f
:102904000000fa00e282a800ddff07000080fa0060
:10291400000006000200fa00000f7800000f2000fb
:102924001e0060004480de0010178800f4ff0700da
:102934001e0078006f00600010178800f0ff070089
:102944000080fa00000006000200fa00004f780040
:102954001e00fb00c0618800c1618000000f2000e0
:10296400008060004480de0010178800e4ff070048
:10297400c06180006f00600010178800e0ff07004e
:102984000080fa00000006000200fa00000f780040
:102994001e00780010178800d4ff07000080fa009a
:1029a400000006000200fa00000f7800362cef0049
:1029b40008003700b0618000800078009e804000ed
:1029c400914078000000e800b06188000140780080
:1029d400ddff0700b06180001e0040001040780059
:1029e4000004e000f3ff3a000080fa000000060053
:1029f4000000fa0020002000e3ff07008000200010
:102a0400e1ff07000080fa00000006000000fa0061
:102a14000000eb00dcff0700f0002000daff0700f5
:102a24000080fa00000006000000fa000000eb003d
:102a3400d5ff070010002000d3ff07000080fa0034
:102a4400000006000000fa000000eb00ceff0700c3
:102a540060002000ccff07000080fa0000000600a0
:102a64000000fa0080002000c7ff07000000eb0010
:102a7400c5ff07000080fa00000006000000fa000d
:102a8400c0002000c0ff07000000eb00beff0700ed
:102a94000080fa00000006000000fa008000200018
:102aa400b9ff07000000eb00b7ff07000080fa0041
:102ab400000006000000fa00c0002000b2ff07007a
:102ac4000000eb00b0ff07000080fa0000000600e1
:102ad4000000fa0090002000abff07004000200037
:102ae400a9ff07000080fa00000006000000fa00b9
:102af400d0002000a4ff070040002000a2ff070030
:102b04000080fa00000006000000fa001000200017
:102b14009dff0700400020009bff07000080fa0093
:102b2400000006000000fa001000200096ff0700d5
:102b34000000eb0094ff07000080fa00000006008c
:102b44000000fa00100020008fff0700c0002000e2
:102b54008dff07000080fa00000006000000fa0064
:102b64001000200088ff07008000200086ff070077
:102b74000080fa00000006000000fa00e222ef00e4
:102b8400de82a900dea2a900de62a900de42a9005d
:102b9400de22a900de02a90010002000d061880016
:102ba4002000200078ff070091ff070090ff070036
:102bb40096ff07009cff0700a2ff07003a2cef00d6
:082bc4000080fa000000060089
:020000040000fa
:102bcc00000800002804000000000000280c000091
:102bdc000c00000002000000010000008e108e00ae
:102bec00208e30008e408e00340c00000800000057
:102bfc00000000005e0c00001a0000000200000043
:102c0c00686a6c00747a4c0000000100000200003d
:102c1c000400080000100000000020002b2d2300f1
:102c2c00300000003c0c00002200000002000000fc
:102c3c0030313200333435003637380039414200f8
:102c4c004344450046003000313233003435360001
:102c5c00373839006162630064656600000000006b
:042c6c003816800096
:020000040000fa
:042c70000000000060
:00000001FF
