:020000040000fa
:080000000001040000000000f3
:020000040000fa
:0400080032080000ba
:020000040000fa
:04000c0032080000b6
:020000040000fa
:0400100032080000b2
:020000040000fa
:0400140032080000ae
:020000040000fa
:0400180032080000aa
:020000040000fa
:04001c0032080000a6
:020000040000fa
:0400200032080000a2
:020000040000fa
:04002400320800009e
:020000040000fa
:040028005e02000074
:020000040000fa
:04002c003208000096
:020000040000fa
:040030003208000092
:020000040000fa
:040034006602000060
:020000040000fa
:04003800320800008a
:020000040000fa
:04003c003208000086
:020000040000fa
:040040003208000082
:020000040000fa
:04004400320800007e
:020000040000fa
:04004800320800007a
:020000040000fa
:04004c003208000076
:020000040000fa
:040050003208000072
:020000040000fa
:04005400ce020000d8
:020000040000fa
:04005800320800006a
:020000040000fa
:04005c003208000066
:020000040000fa
:040060003208000062
:020000040000fa
:04006400320800005e
:020000040000fa
:04006800a8010000eb
:020000040000fa
:04006c003208000056
:020000040000fa
:040070003208000052
:020000040000fa
:04007400320800004e
:020000040000fa
:04007800320800004a
:020000040000fa
:04007c003208000046
:020000040000fa
:040080003208000042
:020000040000fa
:040084002002000056
:020000040000fa
:04008800320800003a
:020000040000fa
:04008c003208000036
:020000040000fa
:040090003208000032
:020000040000fa
:04009400320800002e
:020000040000fa
:04009800320800002a
:020000040000fa
:04009c003208000026
:020000040000fa
:0400a0003208000022
:020000040000fa
:0400a400320800001e
:020000040000fa
:0400a800320800001a
:020000040000fa
:0400ac003208000016
:020000040000fa
:0400b0003208000012
:020000040000fa
:0400b400320800000e
:020000040000fa
:0400b800320800000a
:020000040000fa
:0400bc003208000006
:020000040000fa
:0400c0003208000002
:020000040000fa
:0400c40032080000fe
:020000040000fa
:0400c80032080000fa
:020000040000fa
:0400cc0032080000f6
:020000040000fa
:0400d00032080000f2
:020000040000fa
:0400d40032080000ee
:020000040000fa
:0400d80032080000ea
:020000040000fa
:0401080032080000b9
:020000040000fa
:04010c0032080000b5
:020000040000fa
:0401100032080000b1
:020000040000fa
:0401140032080000ad
:020000040000fa
:0401180032080000a9
:020000040000fa
:04011c0032080000a5
:020000040000fa
:0401200032080000a1
:020000040000fa
:04012400320800009d
:020000040000fa
:040128003208000099
:020000040000fa
:04012c003208000095
:020000040000fa
:040130003208000091
:020000040000fa
:04013400320800008d
:020000040000fa
:040138003208000089
:020000040000fa
:04013c003208000085
:020000040000fa
:040140003208000081
:020000040000fa
:04014400320800007d
:020000040000fa
:040148003208000079
:020000040000fa
:04014c003208000075
:020000040000fa
:040150003208000071
:020000040000fa
:04015400320800006d
:020000040000fa
:040158003208000069
:020000040000fa
:04015c003208000065
:020000040000fa
:040160003208000061
:020000040000fa
:04016400320800005d
:020000040000fa
:040168003208000059
:020000040000fa
:04016c003208000055
:020000040000fa
:040170003208000051
:020000040000fa
:04017400320800004d
:020000040000fa
:040178003208000049
:020000040000fa
:04017c003208000045
:020000040000fa
:040180003208000041
:020000040000fa
:04018400320800003d
:020000040000fa
:040188003208000039
:020000040000fa
:04018c003208000035
:020000040000fa
:040190003208000031
:020000040000fa
:04019400320800002d
:020000040000fa
:040198003208000029
:020000040000fa
:04019c003208000025
:020000040000fa
:0401a0003208000021
:020000040000fa
:0401a400320800001d
:020000040000fa
:0401a8003208000019
:020000040000fa
:0401ac003208000015
:020000040000fa
:0401b0003208000011
:020000040000fa
:0401b400320800000d
:020000040000fa
:0401b8003208000009
:020000040000fa
:0401bc003208000005
:020000040000fa
:0401c0003208000001
:020000040000fa
:0401c40032080000fd
:020000040000fa
:0401c80032080000f9
:020000040000fa
:0401cc0032080000f5
:020000040000fa
:0401d00032080000f1
:020000040000fa
:0401d40032080000ed
:020000040000fa
:0401d80032080000e9
:020000040000fa
:100200000fc420000eff20000e0188000000000037
:10021000000020000000e000020032000001200089
:10022000200288000c00070040c8200001002000c8
:1002300011000700000020000000e0000200320072
:100240000000020000000000200502000000000085
:100250000040da000000fe004440a900a004200095
:100260000000e0000300320000002000a001880030
:100270004440a8000000060091018800800078003a
:100280000000eb0015003700e280400032a0b4000f
:100290009101ba00e280400032a0b4009102ba009d
:1002a000e280400032a0b4000002eb00472bde00e9
:1002b000f507b200602ce10004003a000059eb00a1
:1002c0008301e900fdff3e00040037006128e100e2
:1002d000010032000082eb000b00070011c3ba00de
:1002e0001101ba000604e00003003a000200e00039
:1002f000e5ff3a0000000600f607b200960188000c
:1003000082007800f5ff37003159ba008301e90017
:100310000c0032002159ba008301e90008003200c4
:100320000400e00003003a00e280400032a0b40084
:10033000f5ff370011d9ba008301e900faff3a004e
:100340008100e800e180400032a0b4000000060017
:10035000809fbe000000fa008600a900c050800007
:1003600080004000408020000080400010007800a5
:10037000e10f500019003a00c0508000800040009a
:1003800040802000008040008000eb0001087800e1
:10039000304080000000e00004003a00082aef002e
:1003a000605080000000e80040618800c05080007c
:1003b000800040006080200000804000110020008c
:1003c000010878000c2aef00d602a90010002000d6
:1003d00050508800d622a8001600370050508000e8
:1003e0000000e0000a003a00c05080008000400099
:1003f00060802000008040008000eb000108780051
:10040000082aef000c2aef00f0002000406188006d
:10041000c0508000800040004080200000804000ec
:100420001100200001087800d602a8000021ef008a
:1004300005e1a8000080fa004f00be000040060061
:10044000809fbe00821f78000000fa0086e0a900ad
:10045000c05080008000400060802000008040008c
:1004600010007800e10f500010003a00505080005a
:100470000000a20050508800b01680000000d1009b
:100480006140600000c0ea00614060000080fb0045
:100490006100600000004000b2168000d1ff2f0014
:1004a0008100610001007000b01688000080fa0031
:1004b0004f0178004f00be00004006000000fa0027
:1004c0008400a9000080fa0000400600809fbe0062
:1004d0000000fa008460a900c05080008000400045
:1004e000408020000080400010007800e10f5000a4
:1004f00027003a00304080000000e00005003a008c
:10050000605080000000e80040618800405080009a
:10051000b0618800c05080008000400060802000f2
:1005200000804000100078000000e00005003a0064
:1005300010002000705088001000200030618800fa
:1005400013003700c0508000800040004080200031
:10055000008040008000eb0001087800c05080005f
:1005600080004000608020000080400011002000da
:1005700001087800082aef000c2aef00202cef0079
:10058000d602a9001000200050508800d622a800f2
:100590000080fa004f00be00004006003600f80060
:1005a000809fbe00829fbe00849fbe00869fbe00cb
:1005b000889fbe000600fa000014800000408800fa
:1005c00000408000cf80de000f03070012ff2000f4
:1005d000f3d7230062030700f00207000040780011
:1005e00002e8b70002c8bf0003e8b700101480009b
:1005f000805088008150800080bb2000808f500098
:1006000003003400400020005061880009003700da
:1006100081508000c05d2000808f500003003400b6
:1006200020002000506188000200370010002000e8
:1006300050618800505080000000e00007003a0040
:10064000c0508000800040004080200000804000ba
:10065000100078000000e000d4003200c05080009c
:1006600080004000408020000080400010007800a2
:100670000000e0009c003200c2508000405080002a
:1006800021802000914078004911dd0000014100e7
:100690008080200000004100014878005061800007
:1006a000e10f500090003400405080000000e00056
:1006b0008d003400c2508000405080001007980028
:1006c0005361800020002000000278001100090022
:1006d0008401d8001e0390000000530020079800fa
:1006e000c35080004450800051618000810052005e
:1006f000c919dd0081814100818020008180410095
:10070000914078008181fb00c450800041508000fe
:100710004922dd0001024200818020008100420068
:10072000914078008180fb00818141002100200000
:1007300001027800110009008401d8008000fd004a
:10074000814078004911dd002e0390000601410030
:100750008080200000004100014878005061800046
:10076000e30f500060003400c2508000435080000e
:10077000506180006300b9008000780040002000d4
:1007800080037800110009008700d8000080510024
:1007900020079800c35080004450800051618000c1
:1007a00081005200c919dd00818141008180200053
:1007b00081804100914078008181fb00c45080001d
:1007c00045508000566180002100200081037800a0
:1007d000110009000703d8008000fd00818052004d
:1007e0004922dd0001024200818020008100420098
:1007f000914078008180fb00818141002100200030
:1008000001027800110009008401d8008000fd0079
:10081000814078004911dd002e039000060141005f
:10082000808020000000410001487800c250800014
:100830004750800017079800536180004000200057
:1008400000027800110009008401d8001e03900006
:100850000000530020079800c350800044508000df
:10086000556180002100200001037800110009007b
:100870008602d8008000fd0081005200c919dd0009
:100880008181410081802000818041009140780079
:100890008181fb00c4508000415080004922dd006e
:1008a00001024200818020008100420091407800d6
:1008b0008180fb008181410021002000010278003d
:1008c000110009008401d8008000fd0081407800fb
:1008d0004911dd002e0390000601410080802000b8
:1008e0000000410001487800505080000000e00006
:1008f00020003200242cef001b0037002061800014
:1009000080004000608020000080400010007800df
:10091000e10f500011003a0020618000800040008b
:100920004080200000804000100078000000e000bf
:100930000a003a002161800040508000c908dd00b3
:10094000808040008080200000804000904078003f
:1009500003c8bf0000c0400003e8b700206180006a
:100960000000e80020618800206180000000e000b5
:10097000e2ff3400415080005061800080804000e0
:100980000020200080037800110009008700d800b3
:100990008000fd0040508800405080000000e000d2
:1009a00002003a00100020007050880020148000df
:1009b000b050880003c8bf000080fb00cf80de007d
:1009c000110207000004be00b0508000cf80de009e
:1009d0000d0207000200200003502400ad010700b3
:1009e0000001be000800be005d020700eb01070029
:1009f0000040780003e8b70003c8bf000080fb0098
:100a0000c200dd0000302000008f600003c8bf007e
:100a10000080fb001e007000501688008560a90051
:100a20000080fa004f04be004f03be004f02be001c
:100a30004f01be004f00be003600f9000040060026
:100a40000400fa00889fbe00000f7800110798008c
:100a50001e01070029010700490107009000070057
:100a600005e1a800a1e2a800182aef000100370064
:100a700000000000705080000000e000fcff320029
:100a8000202cef004c003700605080008000e80010
:100a900040618000808f500004003a0001618000b6
:100aa000b0618000808f500048003c00c050800042
:100ab000800040004080200000804000100078004e
:100ac0000000e00012003200c15080000061800090
:100ad000c908dd0080804000808020000080400048
:100ae0001041780060508000c901dd00c1508000d5
:100af000f0ff21000088b9000000780080804100ec
:100b0000006180000080400082407800860007007d
:100b1000242cef002200370020618000800040007c
:100b20006080200000804000100078000000e0009d
:100b300018003200206180008000400040802000ca
:100b400000804000100078000000e00011003a0032
:100b50002961800008618000605080004901dd004b
:100b600021618000f0ff21000088b90000007800ba
:100b70008000410000618000008040009500070077
:100b8000c948dd00088140008180200081004100cb
:100b900080487800206180000000e8002061880023
:100ba000206180000000e000dbff34000061800075
:100bb0000000e8000061880001618000f01f200053
:100bc000808f5000b0ff34000100370000000000ab
:100bd000306180000000e00013003200c05080004f
:100be0008000400040802000008040008000eb003a
:100bf00001087800c0508000800040006080200024
:100c0000008040001100200001087800082aef0051
:100c10000c2aef00d602a9001000200050508800d6
:100c2000d622a800262cef00605080008000e8004b
:100c30004061800000017800110009008200d800a6
:100c40008000fd00605088000e2aef0089ff370009
:100c50000200fa00004f78001111800000402000cf
:100c6000008060000000e000030032001e80fb00f6
:100c700020118800030037001e80fb00201188002f
:100c800000000000fd0007000004e000fdff32004e
:100c900020118000004078000080fa00000006006b
:100ca0000400fa00dec2a900de42a800de62a9004c
:100cb000de82a900e282a800e0032900000f78008c
:100cc000f0fb2d00100798009e0090001e00780099
:100cd000ed000700e282a90010c0b300dcff0700ae
:100ce0000000000000118000620060000000e000d1
:100cf000fcff3a0010c0b300d5ff07000000000061
:100d000000118000620060000000e000fcff3a007b
:100d1000e282a800201180000040780022ecb70099
:100d20000080fa00000006000600fa001007980094
:100d3000414798001e0090004800de00004f7800f8
:100d40001e00900010479800e282a90020c0b30066
:100d5000bfff07000000000000118000620060007b
:100d60000000e000fcff3a001e407800b8ff0700da
:100d70000000000000118000620060000000e00040
:100d8000fcff3a001e409000b1ff07000000000089
:100d900000118000620060000000e000fcff3a00eb
:100da0004e409000aaff07000000000000118000e4
:100db000620060000000e000fcff3a00e282a80050
:100dc000201180000040780022ecb7000080fa007b
:100dd000000006000600fa00200798000000eb0063
:100de000000f78002e0090004800de002047980099
:100df0002e00900030479800e282a90030c0b30076
:100e000093ff0700000000000011800062006000f6
:100e10000000e000fcff3a002e4090008cff07002d
:100e20000000000000118000620060000000e0008f
:100e3000fcff3a003e40900085ff070000000000e4
:100e400000118000620060000000e000fcff3a003a
:100e50000040eb007eff07000080fb00000f7800e1
:100e6000e282a8001e007800004078000080fa00ae
:100e7000000006000000fa007c0007000080fa0075
:100e8000000006000200fa00000f7800b154840050
:100e90004000200000017800110009008200d80005
:100ea000800078001e0078000088b90000007800fb
:100eb000100888000080fa00000006000000fa0018
:100ec0007d0207000080fa00000006000000fa0022
:100ed0000421ef00200880000040a0000050a00086
:100ee0002008880060002000e6ff07008460a90059
:100ef0008c60a8000080fa00000006000000fa00e4
:100f0000c742a800a942a900c762a800a962a90017
:100f1000c782a800a982a900c722a900c702a90008
:100f2000c6a2a900c682a900c662a900c642a9003d
:100f3000c622a900c602a900d202a900d222a90095
:100f4000d302a8008220a8008600a9008e00a80075
:100f5000d322a8008240a80086e0a9008ee0a80065
:100f6000d242a800d262a800c162a8008200a800f4
:100f70008400a9008c00a8000080fa000000060090
:100f80000000fa00a1a2a900001580000080a100c5
:100f90000090a10000158800001580000050a000fe
:100fa0000060a0000070a00000158800a022a8002a
:100fb0001015800000d0a00000e0a00000f0a0000c
:100fc00010158800a342a800101580000020a00082
:100fd0000030a0000040a1000050a10010158800c2
:100fe000a222a900a202a9002115800000f0210080
:100ff0000100700020158800a4e2a80021158000df
:1010000000fc2f0000806000f001b3002015880074
:10101000a782a900a682a900301580000000a100c7
:101020000010a1000020a1000030a10030158800b0
:10103000301580000080a1000090a10000a0a10058
:1010400000b0a1003015880000c0210050158800b4
:10105000a042a8008560a8008d60a8000080fa006a
:10106000000006000040da000000fe008d00a9002c
:1010700021e2a9008500a9000000060000118000ff
:101080006140600000000600101188000111880016
:1010900000000600889fbe008a9fbe008c1f78005b
:1010a000970007009e00330003866c006450e10047
:1010b0002e0032006420e100330032006150e10074
:1010c0002f0032006120e10031003200858555009b
:1010d000eb07b000090020000804200005003700dd
:1010e0000804440089844c000a00310006034300d0
:1010f00087834b000001530081815b00f8ff3300c0
:101100000203be000800a0000804440089844c00cb
:10111000f6ff3900c639dd0083017300010032009b
:10112000130020008904d1000884d3000998a3008b
:10113000050032000800a7000300a0008904d100c8
:101140000884d3008b05e8008904d1000884d3000b
:101150000001eb000281d2002e00070001f0a10087
:101160000cf0a70001f0a000760037006420e10039
:10117000780032000801be000200be00f7ff370011
:101180006120e100730032006000b800f3ff370017
:101190000000200001f82700f0ff37000001be002a
:1011a000420007000470a70003f0a10003f8a300a9
:1011b00013003a006509b100100032000900350043
:1011c0006928e10002003500010028000000050048
:1011d00000004000818048008502e900fcff3a00e1
:1011e00000000600f88f4200050035008100d100a4
:1011f0000080d3008502e800fcff3a0000000600f2
:101200008000eb00000005004f89de0082017800bd
:101210008700370081002000618055000b003d00f1
:101220000b00200061fe2f000100e1001d003400d2
:1012300082817100610164008904d1000884d300b7
:101240000000e800faff3a0071002000610064002d
:1012500003007000020060000900320061044400d5
:10126000e0844c000988a500050032008b05e800e9
:101270006808e10002003a008904d1000884d30024
:10128000f20f20000258e10005003d00c75ddd00bf
:10129000f907b20089807500080078000000060098
:1012a0000bf827008b00780000000500c70ade005d
:1012b000f107b200f50fb20008003200e1cf4200a2
:1012c000020032000170a00024000500810f7000b0
:1012d000010032000408050044000500810f700081
:1012e00002003a00140005008502e90000004000f9
:1012f00081c04800fcff3b000170a00024000500f5
:101300000004be00e9ff07000003be000405be00a4
:101310000200be00e5ff0700844f750000000600d4
:101320000200be006450e100050036006420e100c8
:10133000020036000968a30001003a000800be0060
:101340000160a0004f0678004f05be004f04be00ac
:1013500000000600f0ff2f00f1ff2700f9ff370023
:10136000889fbe008a9fbe008c1f7800e4ff0700a4
:10137000ebff330003866c006450e1002400320070
:101380006420e100270032006150e10022003200b9
:101390006120e100210032008b854200eb07b100a3
:1013a0000134b800003ab8000804420089844a00b9
:1013b000013ab8000030b8008880400009014a00b6
:1013c0000400330000004000818048000201490011
:1013d0008b05e900c909dd008301700001003200be
:1013e00013002000c814de004814dd004709de00a9
:1013f0001200b200c808de000884700085ff0700f4
:1014000001f0a1000cf0a70001f0a000cdff370013
:101410006120e100cfff32000801be000200be00e3
:10142000f7ff37006150e100fcff3a00c9ff3700c9
:10143000881f7800030478000300e00007003d00e7
:1014400060001000e080180060011900e0811900c0
:1014500002003b0001f02d000300370004000700ec
:1014600008f0a70001f0a0004f047800000006007b
:10147000889fbe008a9fbe00008270000402710037
:1014800004827100260032000004be000200be008b
:101490006011b8006b092000950220000182cf0086
:1014a0000a0039000541b1000082cf000700390071
:1014b0000541b1000982cf00040039000541b100a7
:1014c0000882cf00010039000541b10005425200f9
:1014d000120032000a003b00828171006101640049
:1014e0008100d1000080d3008984d3000884d30018
:1014f0008b05e8000442e800f7ff3a0007003700d8
:101500000804440089844c000000480081804800a1
:101510008b05e9000442e900f9ff3a003dff0700ae
:0c1520004f05be004f04be000000060096
:020000040000fa
:10152c00127a0000456d00007074000079200000f4
:10153c0054720000616300006b200000202000004a
:10154c002000000052650000636f00007264000010
:10155c00696e0000672e00002e2e00002020000077
:10156c002000000045640000697400002020000089
:10157c00202000002020000020200000202000005f
:10158c0020000000446500006c65000074650000dc
:10159c00202000002020000020200000202000003f
:1015ac002000000054720000616300006b200000fa
:0415bc00000000002b
:020000040000fa
:1015c0000000fa00e2a2a800f06180000000e00044
:1015d0000a003200401f2000c0618800030037006d
:1015e000c06180000000e900c0618800c061800027
:1015f0000000e000faff3c00090037002003200053
:10160000c061880003003700c06180000000e9006d
:10161000c0618800c06180000000e000faff3c006b
:10162000e2a2a9000080fa00000006000000fa0013
:10163000e282a900e2ff07000080fa000000060035
:101640000000fa00e282a800ddff07000080fa0037
:10165000000006000200fa00000f7800000f2000d2
:101660001e0060004480de0010178800f4ff0700b1
:101670001e0078006f00600010178800f0ff070060
:101680000080fa00000006000200fa00004f780017
:101690001e00fb00e0618800e1618000000f200077
:1016a000008060004480de0010178800e4ff07001f
:1016b000e06180006f00600010178800e0ff070005
:1016c0000080fa00000006000200fa00000f780017
:1016d0001e00780010178800d4ff07000080fa0071
:1016e000000006000200fa00000f78003a2cef001c
:1016f00008003700d0618000800078009e804000a4
:10170000914078000000e800d06188000140780036
:10171000ddff0700d06180001e004000104078000f
:101720000004e000f3ff3a000080fa000000060029
:101730000000fa0020002000e3ff070080002000e6
:10174000e1ff07000080fa00000006000000fa0038
:101750000000eb00dcff0700f0002000daff0700cc
:101760000080fa00000006000000fa000000eb0014
:10177000d5ff070010002000d3ff07000080fa000b
:10178000000006000000fa000000eb00ceff07009a
:1017900060002000ccff07000080fa000000060077
:1017a0000000fa0080002000c7ff07000000eb00e7
:1017b000c5ff07000080fa00000006000000fa00e4
:1017c000c0002000c0ff07000000eb00beff0700c4
:1017d0000080fa00000006000000fa0080002000ef
:1017e000b9ff07000000eb00b7ff07000080fa0018
:1017f000000006000000fa00c0002000b2ff070051
:101800000000eb00b0ff07000080fa0000000600b7
:101810000000fa0090002000abff0700400020000d
:10182000a9ff07000080fa00000006000000fa008f
:10183000d0002000a4ff070040002000a2ff070006
:101840000080fa00000006000000fa0010002000ee
:101850009dff0700400020009bff07000080fa006a
:10186000000006000000fa001000200096ff0700ac
:101870000000eb0094ff07000080fa000000060063
:101880000000fa00100020008fff0700c0002000b9
:101890008dff07000080fa00000006000000fa003b
:1018a0001000200088ff07008000200086ff07004e
:1018b0000080fa00000006000000fa00e222ef00bb
:1018c000de82a900dea2a900de62a900de42a90034
:1018d000de22a900de02a90010002000f0618800cd
:1018e0002000200078ff070091ff070090ff07000d
:1018f00096ff07009cff0700a2ff07003e2cef00a9
:081900000080fa00000006005f
:020000040000fa
:10190800000800002804000000000000280c000067
:1019180010000000020000000f00010000988a007b
:10192800a88ab8008ac88a00d88a00000200000085
:10193800380c00000800000000000000a40c800023
:020000040000fa
:04194800000000009b
:00000001FF
