:020000040000fa
:080000000001040000000000f3
:020000040000fa
:04000800a80100004b
:020000040000fa
:04000c00a801000047
:020000040000fa
:04001000a801000043
:020000040000fa
:04001400a80100003f
:020000040000fa
:04001800a80100003b
:020000040000fa
:04001c00a801000037
:020000040000fa
:04002000a801000033
:020000040000fa
:04002400a80100002f
:020000040000fa
:04002800840500004b
:020000040000fa
:04002c00a801000027
:020000040000fa
:04003000a801000023
:020000040000fa
:040034008c05000037
:020000040000fa
:04003800a80100001b
:020000040000fa
:04003c00a801000017
:020000040000fa
:04004000a801000013
:020000040000fa
:04004400a80100000f
:020000040000fa
:04004800a80100000b
:020000040000fa
:04004c00a801000007
:020000040000fa
:04005000a801000003
:020000040000fa
:04005400ae050000f5
:020000040000fa
:04005800a8010000fb
:020000040000fa
:04005c00a8010000f7
:020000040000fa
:04006000a8010000f3
:020000040000fa
:04006400a8010000ef
:020000040000fa
:04006800240500006b
:020000040000fa
:04006c00a8010000e7
:020000040000fa
:04007000a8010000e3
:020000040000fa
:04007400a8010000df
:020000040000fa
:04007800a8010000db
:020000040000fa
:04007c00a8010000d7
:020000040000fa
:04008000a8010000d3
:020000040000fa
:04008400540500001f
:020000040000fa
:04008800a8010000cb
:020000040000fa
:04008c00a8010000c7
:020000040000fa
:04009000a8010000c3
:020000040000fa
:04009400a8010000bf
:020000040000fa
:04009800a8010000bb
:020000040000fa
:04009c00a8010000b7
:020000040000fa
:0400a000a8010000b3
:020000040000fa
:0400a400a8010000af
:020000040000fa
:0400a800a8010000ab
:020000040000fa
:0400ac00a8010000a7
:020000040000fa
:0400b000a8010000a3
:020000040000fa
:0400b400a80100009f
:020000040000fa
:0400b800a80100009b
:020000040000fa
:0400bc00a801000097
:020000040000fa
:0400c000a801000093
:020000040000fa
:0400c400a80100008f
:020000040000fa
:0400c800a80100008b
:020000040000fa
:0400cc00a801000087
:020000040000fa
:0400d000a801000083
:020000040000fa
:0400d400a80100007f
:020000040000fa
:0400d800a80100007b
:020000040000fa
:04010800a80100004a
:020000040000fa
:04010c00a801000046
:020000040000fa
:04011000a801000042
:020000040000fa
:04011400a80100003e
:020000040000fa
:04011800a80100003a
:020000040000fa
:04011c00a801000036
:020000040000fa
:04012000a801000032
:020000040000fa
:04012400a80100002e
:020000040000fa
:04012800a80100002a
:020000040000fa
:04012c00a801000026
:020000040000fa
:04013000a801000022
:020000040000fa
:04013400a80100001e
:020000040000fa
:04013800a80100001a
:020000040000fa
:04013c00a801000016
:020000040000fa
:04014000a801000012
:020000040000fa
:04014400a80100000e
:020000040000fa
:04014800a80100000a
:020000040000fa
:04014c00a801000006
:020000040000fa
:04015000a801000002
:020000040000fa
:04015400a8010000fe
:020000040000fa
:04015800a8010000fa
:020000040000fa
:04015c00a8010000f6
:020000040000fa
:04016000a8010000f2
:020000040000fa
:04016400a8010000ee
:020000040000fa
:04016800a8010000ea
:020000040000fa
:04016c00a8010000e6
:020000040000fa
:04017000a8010000e2
:020000040000fa
:04017400a8010000de
:020000040000fa
:04017800a8010000da
:020000040000fa
:04017c00a8010000d6
:020000040000fa
:04018000a8010000d2
:020000040000fa
:04018400a8010000ce
:020000040000fa
:04018800a8010000ca
:020000040000fa
:04018c00a8010000c6
:020000040000fa
:04019000a8010000c2
:020000040000fa
:04019400a8010000be
:020000040000fa
:04019800a8010000ba
:020000040000fa
:04019c00a8010000b6
:020000040000fa
:0401a000a8010000b2
:020000040000fa
:0401a400a8010000ae
:020000040000fa
:0401a800a8010000aa
:020000040000fa
:0401ac00a8010000a6
:020000040000fa
:0401b000a8010000a2
:020000040000fa
:0401b400a80100009e
:020000040000fa
:0401b800a80100009a
:020000040000fa
:0401bc00a801000096
:020000040000fa
:0401c000a801000092
:020000040000fa
:0401c400a80100008e
:020000040000fa
:0401c800a80100008a
:020000040000fa
:0401cc00a801000086
:020000040000fa
:0401d000a801000082
:020000040000fa
:0401d400a80100007e
:020000040000fa
:0401d800a80100007a
:020000040000fa
:100200006fc120000eff20000e01880000000000da
:10021000000020000000e000020032000001200089
:10022000200288000c000700009f20000100200031
:1002300011000700000020000000e0000200320072
:100240000000020000000000f607020000000000ad
:100250000040da000000fe004440a9000003200036
:100260000000e0000300320000002000a001880030
:100270004440a8000000060091018800800078003a
:100280000000eb0015003700e280400032a0b4000f
:100290009101ba00e280400032a0b4009102ba009d
:1002a000e280400032a0b4000002eb00472bde00e9
:1002b000f507b200602ce10004003a000059eb00a1
:1002c0008301e900fdff3e00040037006128e100e2
:1002d000010032000082eb000b00070011c3ba00de
:1002e0001101ba000604e00003003a000200e00039
:1002f000e5ff3a0000000600f607b200960188000c
:1003000082007800f5ff37003159ba008301e90017
:100310000c0032002159ba008301e90008003200c4
:100320000400e00003003a00e280400032a0b40084
:10033000f5ff370011d9ba008301e900faff3a004e
:100340008100e800e180400032a0b4000000060017
:100350000040da000000fe00889fbe008a9fbe00b9
:100360008c1f78009d000700a400330003866c00fa
:100370006450e1002e0032006420e10033003200be
:100380006150e1002f0032006120e10031003200b5
:1003900085855500eb07b000090020000804200007
:1003a000050037000804440089844c000a0031002d
:1003b0000603430087834b000001530081815b00eb
:1003c000f8ff33000203be000800a0000804440048
:1003d00089844c00f6ff3900c639dd0083017300c3
:1003e00001003200130020008904d1000884d300ea
:1003f0000998a300050032000800a7000300a00030
:100400008904d1000884d3008b05e8008904d10059
:100410000884d3000001eb000281d2003400070001
:1004200001f0a1000cf0a70001f0a0007c00370053
:100430006420e1007e0032000801be000200be0020
:10044000f7ff37006120e100790032006000b8005a
:10045000f3ff37000000200001f82700f0ff37000d
:100460000001be00480007000470a70003f0a100cf
:100470006509b100160032000d0035006828e10062
:1004800006003500f0ff2f00f1ff27000300e00019
:1004900013003b00010028000000050000004000a0
:1004a000818048008502e900fcff3a00080037001f
:1004b000f88f420002003c008000eb0000000500c5
:1004c0008100d1000080d3008502e800fcff3a00e3
:1004d0000300e00002003b0060001000e080180014
:1004e000000006004f89de00820178008700370097
:1004f00081002000618055000b003d000b002000b2
:1005000061fe2f000100e1001d00340082817100b6
:10051000610164008904d1000884d3000000e80070
:10052000faff3a00710020006100640003007000cf
:10053000020060000900320061044400e0844c00c5
:100540000988a500050032008b05e8006808e10075
:1005500002003a008904d1000884d300f20f200081
:100560000258e10005003d00c75ddd00f907b2005b
:100570008980750008007800000006000bf827004d
:100580008b00780000000500c70ade00f107b2000a
:10059000f50fb20008003200e1cf42000200320045
:1005a0000170a00024000500810f700001003200de
:1005b0000408050044000500810f700002003a00a5
:1005c000140005008502e9000000400081c04800d9
:1005d000fcff3b000170a000240005000004be00e9
:1005e000e9ff07000003be000405be000200be00d4
:1005f000e5ff0700844f7500000006000200be0002
:100600006450e100050036006420e100020036007d
:100610000968a30001003a000800be000160a000c4
:100620004f0678004f05be004f04be0000000600d4
:10063000f0ff2f00f1ff2700f9ff3700889fbe0071
:100640008a9fbe008c1f7800e4ff0700ebff330099
:1006500003866c006450e100240032006420e10055
:10066000270032006150e100220032006120e100e9
:10067000210032008b854200eb07b1000134b80045
:10068000003ab8000804420089844a00013ab800e0
:100690000030b8008880400009014a00040033009f
:1006a0000000400081804800020149008b05e900fc
:1006b000c909dd0083017000010032001300200031
:1006c000c814de004814dd004709de001200b20045
:1006d000c808de000884700085ff070001f0a10053
:1006e0000cf0a70001f0a000cdff37006120e10071
:1006f000cfff32000801be000200be00f7ff370046
:100700006150e100fcff3a00c9ff3700881f780004
:10071000030478000300e00007003d0060001000c3
:10072000e080180060011900e081190002003b0020
:1007300001f02d00030037000400070008f0a700b7
:1007400001f0a0004f04780000000600889fbe0062
:100750008a9fbe0000827000040271000482710052
:10076000260032000004be000200be006011b80086
:100770006b092000950220000182cf000a00390099
:100780000541b1000082cf00070039000541b100ea
:100790000982cf00040039000541b1000882cf0072
:1007a000010039000541b10005425200120032003b
:1007b0000a003b0082817100610164008100d10068
:1007c0000080d3008984d3000884d3008b05e8001f
:1007d0000442e800f7ff3a0007003700080444002d
:1007e00089844c0000004800818048008b05e900a6
:1007f0000442e900f9ff3a003dff07004f05be0043
:080800004f04be0000000600d9
:020000040000fa
:10080800127a0000456d0000707400007920000025
:1008180054720000616300006b0000005265000024
:10082800636f000072640000696e0000672e0000ac
:100838002e2e0000004500006469000074000000ce
:10084800446500006c6500007465000000540000f9
:1008580072610000636b000020000000310000009e
:020000040000fa
:100868000200fa00000f78002120840040002000d8
:1008780000017800110009008200d800800078008b
:100888001e0078000088b900000078001008880071
:100898000080fa00000006000000fa00af0207001e
:1008a8000080fa00000006000000fa000421ef00b2
:1008b800200880000040a0000050a0002008880008
:1008c80010002000e6ff07008460a9008c60a800e3
:1008d8000080fa00000006000000fa00c742a800e5
:1008e800a942a900c762a800a962a900c782a800f6
:1008f800a982a900c722a900c702a900c6a2a90007
:10090800c682a900c662a900c642a900c622a900db
:10091800c602a900d202a900d222a900d302a800c7
:100928008220a8008600a9008e00a800d322a80073
:100938008240a80086e0a9008ee0a800d242a80064
:10094800d262a800c162a8008200a8008400a900a1
:100958008c00a8000080fa00000006000000fa00e1
:10096800a1a2a900001580000080a1000090a100ac
:1009780000158800001580000050a0000060a0004d
:100988000070a00000158800a022a80010158000a3
:1009980000d0a00000e0a00000f0a0001015880022
:1009a800a342a800101580000020a0000030a0007d
:1009b8000040a1000050a10010158800a222a90043
:1009c800a202a9002115800000f02100010070009a
:1009d80020158800a4e2a8002115800000fc2f0043
:1009e80000806000f001b30020158800a782a900ec
:1009f800a682a900301580000000a1000010a10007
:100a08000020a1000030a1003015880030158000ba
:100a18000080a1000090a10000a0a10000b0a100ea
:100a28003015880000c0210050158800a042a80099
:100a38008560a8008d60a8000080fa00000006000c
:100a4800801f78000000fa008600a900304080006e
:100a5800e10f500009003a000628ef00f22bef00e2
:100a68001000200040408800d602a9001000200095
:100a7800a05f8800d622a800060037000828ef00eb
:100a88001000200030408800d602a8000021ef00a6
:100a980005e1a8000080fa004f0078000040060039
:100aa800809fbe00821f78000000fa0086e0a9003f
:100ab800a05f80000000a200a05f8800b016800040
:100ac8000000d1006140600000c0ea0061406000a1
:100ad8000080fb006100600000004000b21680004a
:100ae800d1ff2f008100610001007000b01688005e
:100af8000080fa004f0178004f00be000040060059
:100b08000000fa008400a9000080fa0000400600f6
:100b1800801f78000000fa008460a900304080003f
:100b2800e10f500008003a000628ef00f22bef0012
:100b38001000200040408800d602a90010002000c4
:100b4800a05f8800d622a8000080fa004f00780035
:100b5800004006003600f800809fbe00829fbe005d
:100b6800849fbe00869fbe00889fbe000400fa00d6
:100b7800001480000040880010148000c05f8800c6
:100b8800c15f800080bb2000808f500003003400cc
:100b9800400020004060880009003700c15f8000e5
:100ba800c05d2000808f500003003400200020002a
:100bb8004060880002003700100020004060880074
:100bc80030408000e10f50008f003a00905f8000b5
:100bd8000140800000014000a0802000000041008a
:100be8000108780040608000e10f50007800340070
:100bf800905f80000000e00075003400905f800086
:100c0800000f7800426080002000200080017800fa
:100c1800110009000301d8001e02780000005200ec
:100c280010079800925f80004160800081005100a9
:100c380001814000a180200081004100110178005d
:100c4800915f800081814000a18020008180410067
:100c58009100780001014100210020008101780005
:100c6800110009000301d8008000fd001e02900059
:100c78001e02900004014200a080200000004100f4
:100c88000108780040608000e30f500050003400f5
:100c9800925f8000406080006300b90080007800a7
:100ca8004000200080027800110009008500d8006b
:100cb8000000510010079800925f8000416080009a
:100cc8008100510001814000a18020008100410085
:100cd80011017800935f80004460800021002000ab
:100ce80081027800110009000502d8008000fd008b
:100cf8008180510081814000a180200081804100d5
:100d08009100780001014100210020008101780054
:100d1800110009000301d8008000fd001e029000a8
:100d28001e02900004014200a08020000000410043
:100d380001087800955f8000050f78004260800008
:100d48004000200080017800110009000301d8004c
:100d58001e0278000000520010079800925f800081
:100d68004360800021002000010278001100090082
:100d78008401d8008000fd008100510001814000fd
:100d8800a18020008100410011017800915f80005e
:100d980081814000a180200081804100910078007d
:100da80001014100210020008101780011000900a3
:100db8000301d8008000fd001e0290001e02900072
:100dc80004014200a08020000000410001087800d2
:100dd800915f80004060800080804000401f2000bc
:100de80080027800110009008500d8008000fd000d
:100df800905f8800b15f8000406080000080400004
:100e0800b05f88001a00370040408000e10f5000b2
:100e180015003a00a05f8000e10f500012003a0070
:100e2800905f800080004000a0802000008040008b
:100e3800900078000040800000804000204088003a
:100e4800915f80004060800080804000401f20004b
:100e580000017800110009008200d8008000fd0020
:100e6800905f880002003700004080002040880022
:100e780020148000f05f880020408000cf80de00d2
:100e880096fd07000004be00f05f8000cf80de0002
:100e980092fd070002002000035024002cfd0700eb
:100ea8000001be000800be00e2fd07006afd070061
:100eb800000078002040880020408000cf80de00bd
:100ec80086fd070012ff2000f3d72300d9fd070095
:100ed80061fd070000007800104088001040800085
:100ee8005016880011408000000420000080600037
:100ef80000f0a7000000ea000000ea004f00de0052
:100f0800004078000080fb00610060004800dd00c0
:100f180052168000f1ef2f0081006100010070007f
:100f280050168800114080000008200000806000f2
:100f380000f0a7000000ea000000ea004f00de0011
:100f4800004078000080fb00610060004900dd007f
:100f580052168000f1df2f0081006100010070004f
:100f6800501688008560a9000080fa004f04be0072
:100f78004f03be004f02be004f01be004f00be002f
:100f88003600f900004006000000fa00c90007001a
:100f9800062cef0004003700cd0007003060800009
:100fa8000000e80030608800316080000060800048
:100fb800808f5000f8ff3500062cef000400370042
:100fc800ca000700306080000000e8003060880038
:100fd80030608000ee0f5000f9ff34000080fa0006
:100fe800000006000400fa00000f780011079800be
:100ff80029fe07002cfe070037fe070057fe0700f2
:1010080005e1a800a1e2a8009c000700506080004c
:1010180079000700002cef00dbff07000100370014
:1010280000000000106080008080ea0030408000ee
:10103800008060000000e000070032008f00070019
:10104800606080006c0007001000200010608800bd
:10105800042cef0011003700206080008080ea0037
:1010680040408000008060000000e0000b0032007b
:1010780082000700906080005f000700204328007e
:101088005d000700006080000000e8000060880044
:101098001000200020608800022cef00a0168000bd
:1010a800640060000000e0000b003a0000002b0024
:1010b80011002000ba000700006080000000e9006d
:1010c80000608800006080000000e00001003d0032
:1010d800002cef00acff0700a0168000680060003d
:1010e8000000e000ceff3a0000002b0011002000b5
:1010f800ab000700006080000000e8000060880086
:10110800a1ff0700c7ff37000000fa00e2a2a8000d
:10111800401f2000a060880003003700a060800006
:101128000000e900a0608800a06080000000e000e6
:10113800faff3c00e2a2a9000080fa0000000600c5
:101148000000fa00e282a900efff07000080fa0021
:10115800000006000000fa00e282a800eaff07008b
:101168000080fa00000006000200fa00000f780074
:10117800000f20001e0060004480de001017880069
:10118800f4ff07001e0078006f0060001017880049
:10119800f0ff07000080fa00000006000400fa00d3
:1011a800204798002e4090000000fb00000f7800b8
:1011b800000f20001e0060004480de001017880029
:1011c800e4ff07001e0078006f0060001017880019
:1011d800e0ff07000080fa00000006000200fa00a5
:1011e800000f78001e00780010178800d4ff070051
:1011f8000080fa00000006000400fa0010079800ba
:101208000000eb00000f7800060037001e00780091
:101218009e00900000804000104078001e0fe800fb
:10122800deff07001e0078009e009000008040004e
:10123800104078000004e000f4ff3a000080fa0053
:10124800000006000000fa0020002000e3ff07006d
:1012580080002000e1ff07000080fa00000006007f
:101268000000fa000000eb00dcff0700f00020009f
:10127800daff07000080fa00000006000000fa000c
:101288000000eb00d5ff070010002000d3ff070087
:101298000080fa00000006000000fa000000eb00e1
:1012a800ceff070060002000ccff07000080fa0096
:1012b800000006000000fa0080002000c7ff0700b9
:1012c8000000eb00c5ff07000080fa0000000600e0
:1012d8000000fa00c0002000c0ff07000000eb007b
:1012e800beff07000080fa00000006000000fa00b8
:1012f80010002000b9ff070040002000b7ff0700da
:101308000080fa00000006000000fa00100020002b
:10131800b2ff07000000eb00b0ff07000080fa00f2
:10132800000006000000fa0010002000abff0700d4
:10133800c0002000a9ff07000080fa000000060096
:101348000000fa0010002000a4ff07008000200021
:10135800a2ff07000080fa00000006000000fa0063
:10136800e222ef00de82a900dea2a900de62a90067
:10137800de42a900de22a900de02a900200020002a
:1013880096ff0700afff0700aeff0700b4ff070096
:10139800baff0700c0ff07000080fa00000006003f
:020000040000fa
:1013a800f03fb1000180b10006003500ee030900ee
:1013b80000000000403fb1000180b100fbff3d008c
:1013c8001000b000203fb000020035000080090086
:0813d800000000000000060007
:020000040000fa
:1013e000000800000804000000000000080c0000d5
:1013f0000c000000020000000100060084128400be
:101400001f842400842b8400140c000002000000c0
:08141000000000000c0a80003e
:020000040000fa
:0414180000000000d0
:00000001FF
