:020000040000fa
:080000000001040000000000f3
:020000040000fa
:04000800a80100004b
:020000040000fa
:04000c00a801000047
:020000040000fa
:04001000a801000043
:020000040000fa
:04001400a80100003f
:020000040000fa
:04001800a80100003b
:020000040000fa
:04001c00a801000037
:020000040000fa
:04002000a801000033
:020000040000fa
:04002400a80100002f
:020000040000fa
:04002800a80100002b
:020000040000fa
:04002c00a801000027
:020000040000fa
:04003000a801000023
:020000040000fa
:04003400c204000002
:020000040000fa
:04003800a80100001b
:020000040000fa
:04003c00a801000017
:020000040000fa
:04004000a801000013
:020000040000fa
:04004400a80100000f
:020000040000fa
:04004800a80100000b
:020000040000fa
:04004c00a801000007
:020000040000fa
:04005000a801000003
:020000040000fa
:04005400e4040000c0
:020000040000fa
:04005800a8010000fb
:020000040000fa
:04005c00a8010000f7
:020000040000fa
:04006000a8010000f3
:020000040000fa
:04006400a8010000ef
:020000040000fa
:04006800640400002c
:020000040000fa
:04006c00a8010000e7
:020000040000fa
:04007000a8010000e3
:020000040000fa
:04007400a8010000df
:020000040000fa
:04007800a8010000db
:020000040000fa
:04007c00a8010000d7
:020000040000fa
:04008000a8010000d3
:020000040000fa
:0400840092040000e2
:020000040000fa
:04008800a8010000cb
:020000040000fa
:04008c00a8010000c7
:020000040000fa
:04009000a8010000c3
:020000040000fa
:04009400a8010000bf
:020000040000fa
:04009800a8010000bb
:020000040000fa
:04009c00a8010000b7
:020000040000fa
:0400a000a8010000b3
:020000040000fa
:0400a400a8010000af
:020000040000fa
:0400a800a8010000ab
:020000040000fa
:0400ac00a8010000a7
:020000040000fa
:0400b000a8010000a3
:020000040000fa
:0400b400a80100009f
:020000040000fa
:0400b800a80100009b
:020000040000fa
:0400bc00a801000097
:020000040000fa
:0400c000a801000093
:020000040000fa
:0400c400a80100008f
:020000040000fa
:0400c800a80100008b
:020000040000fa
:0400cc00a801000087
:020000040000fa
:0400d000a801000083
:020000040000fa
:0400d400a80100007f
:020000040000fa
:0400d800a80100007b
:020000040000fa
:04010800a80100004a
:020000040000fa
:04010c00a801000046
:020000040000fa
:04011000a801000042
:020000040000fa
:04011400a80100003e
:020000040000fa
:04011800a80100003a
:020000040000fa
:04011c00a801000036
:020000040000fa
:04012000a801000032
:020000040000fa
:04012400a80100002e
:020000040000fa
:04012800a80100002a
:020000040000fa
:04012c00a801000026
:020000040000fa
:04013000a801000022
:020000040000fa
:04013400a80100001e
:020000040000fa
:04013800a80100001a
:020000040000fa
:04013c00a801000016
:020000040000fa
:04014000a801000012
:020000040000fa
:04014400a80100000e
:020000040000fa
:04014800a80100000a
:020000040000fa
:04014c00a801000006
:020000040000fa
:04015000a801000002
:020000040000fa
:04015400a8010000fe
:020000040000fa
:04015800a8010000fa
:020000040000fa
:04015c00a8010000f6
:020000040000fa
:04016000a8010000f2
:020000040000fa
:04016400a8010000ee
:020000040000fa
:04016800a8010000ea
:020000040000fa
:04016c00a8010000e6
:020000040000fa
:04017000a8010000e2
:020000040000fa
:04017400a8010000de
:020000040000fa
:04017800a8010000da
:020000040000fa
:04017c00a8010000d6
:020000040000fa
:04018000a8010000d2
:020000040000fa
:04018400a8010000ce
:020000040000fa
:04018800a8010000ca
:020000040000fa
:04018c00a8010000c6
:020000040000fa
:04019000a8010000c2
:020000040000fa
:04019400a8010000be
:020000040000fa
:04019800a8010000ba
:020000040000fa
:04019c00a8010000b6
:020000040000fa
:0401a000a8010000b2
:020000040000fa
:0401a400a8010000ae
:020000040000fa
:0401a800a8010000aa
:020000040000fa
:0401ac00a8010000a6
:020000040000fa
:0401b000a8010000a2
:020000040000fa
:0401b400a80100009e
:020000040000fa
:0401b800a80100009a
:020000040000fa
:0401bc00a801000096
:020000040000fa
:0401c000a801000092
:020000040000fa
:0401c400a80100008e
:020000040000fa
:0401c800a80100008a
:020000040000fa
:0401cc00a801000086
:020000040000fa
:0401d000a801000082
:020000040000fa
:0401d400a80100007e
:020000040000fa
:0401d800a80100007a
:020000040000fa
:100200004fc020000eff20000e01880000000000fb
:10021000000020000000e000020032000001200089
:10022000200288000c000700007b20000100200055
:1002300011000700000020000000e0000200320072
:100240000000020000000000a40502000000000001
:100250000040da000000fe004440a90040002000f9
:100260000000e0000300320000002000a001880030
:100270004440a8000000060091018800800078003a
:100280000000eb0015003700e280400032a0b4000f
:100290009101ba00e280400032a0b4009102ba009d
:1002a000e280400032a0b4000002eb00472bde00e9
:1002b000f507b200602ce10004003a000059eb00a1
:1002c0008301e900fdff3e00040037006128e100e2
:1002d000010032000082eb000b00070011c3ba00de
:1002e0001101ba000604e00003003a000200e00039
:1002f000e5ff3a0000000600f607b200960188000c
:1003000082007800f5ff37003159ba008301e90017
:100310000c0032002159ba008301e90008003200c4
:100320000400e00003003a00e280400032a0b40084
:10033000f5ff370011d9ba008301e900faff3a004e
:100340008100e800e180400032a0b4000000060017
:100350000040da000000fe000001be00220007009d
:100360000470a70003f0a1006509b1001600320077
:100370000d0035006828e10006003500f0ff2f0071
:10038000f1ff27000300e00013003b0001002800fc
:100390000000050000004000818048008502e9005f
:1003a000fcff3a0008003700f88f420002003c00d2
:1003b0008000eb00000005008100d1000080d30028
:1003c0008502e800fcff3a000300e00002003b0069
:1003d00060001000e0801800000006004f89de0079
:1003e0008201780049003700c70ade00f107b20039
:1003f000f50fb20008003200e1cf420002003200e7
:100400000170a00024000500810f7000010032007f
:100410000408050044000500810f700002003a0046
:10042000140005008502e9000000400081c048007a
:10043000fcff3b000170a00024000500889fbe0067
:100440008a9fbe008c1f7800950007009c00330037
:1004500003866c006450e100240032006420e10057
:10046000270032006150e100220032006120e100eb
:10047000210032008b854200eb07b1000134b80047
:10048000003ab8000804420089844a00013ab800e2
:100490000030b8008880400009014a0004003300a1
:1004a0000000400081804800020149008b05e900fe
:1004b000c909dd0083017000010032001300200033
:1004c000c814de004814dd004709de001200b20047
:1004d000c808de00088470004b00070001f0a1008e
:1004e0000cf0a70001f0a0007e0037006120e100c1
:1004f000800032000801be000200be00f7ff370096
:100500006150e100fcff3a007a003700881f780054
:10051000030478000300e00007003d0060001000c5
:10052000e080180060011900e081190002003b0022
:1005300001f02d00030037000400070008f0a700b9
:1005400001f0a0004f04780000000600889fbe0064
:100550008a9fbe0000827000040271000482710054
:10056000260032000004be000200be006011b80088
:100570006b092000950220000182cf000a0039009b
:100580000541b1000082cf00070039000541b100ec
:100590000982cf00040039000541b1000882cf0074
:1005a000010039000541b10005425200120032003d
:1005b0000a003b0082817100610164008100d1006a
:1005c0000080d3008984d3000884d3008b05e80021
:1005d0000442e800f7ff3a0007003700080444002f
:1005e00089844c0000004800818048008b05e900a8
:1005f0000442e900f9ff3a00030007004f05be007e
:100600004f04be00000006008100200061805500fc
:100610000b003d000b00200061fe2f000100e100f7
:100620001d00340082817100610164008904d100e1
:100630000884d3000000e800faff3a0071002000af
:1006400061006400030070000200600009003200d5
:1006500061044400e0844c000988a50005003200d4
:100660008b05e8006808e10002003a008904d10027
:100670000884d300f20f20000258e10005003d007d
:10068000c75ddd00f907b2008980750008007800b9
:10069000000006000bf827008b0078000000050022
:1006a0000004be0050ff07000003be000405be00aa
:1006b0000200be004cff0700844f750000000600da
:1006c0000200be006450e100050036006420e10035
:1006d000020036000968a30001003a000800be00cd
:1006e0000160a0004f0678004f05be004f04be0019
:1006f00000000600f0ff2f00f1ff2700f9ff370090
:020000040000fa
:08070000127a00003100000034
:020000040000fa
:100708000200fa00000f7800011c8400400020005d
:1007180000017800110009008200d80080007800ec
:100728001e0078000088b9000000780010088800d2
:100738000080fa00000006000000fa00e701070048
:100748000080fa00000006000000fa000421ef0013
:10075800200880000040a0000050a0002008880069
:1007680010002000e6ff07008460a9008c60a80044
:100778000080fa00000006000000fa00c602a80087
:10078800a802a900c722a900c702a900c6e2a900b9
:10079800c6c2a900c6a2a900c682a900c662a9004d
:1007a800c642a900d202a900d222a900d302a800f9
:1007b8008220a8008600a9008e00a800d322a800e5
:1007c8008240a80086e0a9008ee0a800d242a800d6
:1007d800d262a8000080fa00000006000000fa00bb
:1007e800a1a2a900001580000080a1000090a1002e
:1007f80000158800001580000050a0000060a000cf
:100808000070a00000158800a022a8001015800024
:1008180000d0a00000e0a00000f0a00010158800a3
:10082800a342a800101580000020a0000030a100fd
:100838000040a1000050a10010158800a222a900c4
:10084800a202a9002115800000f02100010070001b
:1008580020158800a4e2a8002115800000fc2f00c4
:1008680000806000f001b30020158800a782a9006d
:10087800a682a900301580000000a1000010a10088
:100888000020a1000030a10030158800301580003c
:100898000080a1000090a10000a0a10000b0a1006c
:1008a800301588001000200050158800a042a800cc
:1008b8008560a8008d60a8000080fa00000006008e
:1008c800801f78000000fa008600a90030408000f0
:1008d800e10f500009003a000628ef00f22bef0064
:1008e8001000200040408800d602a9001000200017
:1008f800a05f8800d622a80005003700100020005d
:1009080030408800d602a8000021ef0005e1a800c9
:100918000080fa004f00780000400600809fbe006b
:10092800821f78000000fa0086e0a900a05f80001e
:100938000000a200a05f8800b01680000000d1006f
:100948006140600000c0ea00614060000080fb0078
:100958006100600000004000b2168000d1ff2f0047
:100968008100610001007000b01688000080fa0064
:100978004f0178004f00be0000400600801f78003d
:100988000000fa008460a90030408000e10f5000a8
:1009980008003a000628ef00f22bef0010002000b4
:1009a80040408800d602a90010002000a05f8800ff
:1009b800d622a8000080fa004f0078000040060008
:1009c8003600f800809fbe00829fbe00849fbe0054
:1009d800869fbe000000fa000014800000408800d6
:1009e80030408000e10f500011003a00905f800015
:1009f8000140800000014000a0802000000041006c
:100a080001087800905f80008000e800401f200007
:100a180000017800110009008200d8008000fd0064
:100a2800905f8800b05f80000000e800b05f880039
:100a380040408000e10f500014003a00a05f8000a1
:100a4800e10f500011003a00905f800080004000e4
:100a5800a0802000008040009000780000408000c6
:100a68000080400020408800905f80008000e800ff
:100a7800401f200000017800110009008200d80002
:100a88008000fd00905f8800020037000040800071
:100a98002040880020408000cf80de004dfe070007
:100aa80012ff2000f3d7230062fe070028fe07008c
:100ab8000000780010408800104080004200dd00ef
:100ac800501688008560a9000080fa004f03be0018
:100ad8004f02be004f01be004f00be003600f900b5
:100ae800004006000000fa00d2000700002cef00ca
:100af80004003700d6000700006080000000e8000e
:100b08000060880001608000d05f8000808f500006
:100b1800f8ff3500002cef0004003700d300070071
:100b2800006080000000e80000608800006080002d
:100b3800ee0f5000f9ff34000080fa0000000600b4
:100b48000400fa00000f780011079800fafe070069
:100b5800fdfe070008ff070020ff070005e1a800c9
:100b6800a1e2a800a5000700f8cbbf000000fb0029
:100b780081000700fa2bef00bc00070001003700d6
:100b880000000000e05f80008080ea0030408000c4
:100b9800008060000000e0000600320097000700b7
:100ba800f9cbbf000000fb00730007001000200015
:100bb800e05f8800f05f80008080ea0040408000ad
:100bc800008060000000e0000c0032008b0007008d
:100bd800fccbbf000000fb0067000700203828009e
:100be80065000700d05f80000000e800d05f880043
:100bf80010002000f05f8800fc2bef00a01680009a
:100c0800640060000000e0000d003a0000002b00c6
:100c180011002000c200070010c2b3003f00070007
:100c2800d05f80000000e900d05f8800d05f8000be
:100c38000000e00001003d00fa2bef00a9ff0700cb
:100c4800a0168000680060000000e000ccff3a00b9
:100c580000002b0011002000b100070010c2b300f3
:100c68002e000700d05f80000000e800d05f8800f9
:100c7800d05f80000000e00001003d00fa2bef008b
:100c880098ff0700bfff37000000fa00e2a2a800a3
:100c9800401f2000106088000300370010608000ab
:100ca8000000e90010608800106080000000e0008b
:100cb800faff3c00e2a2a9000080fa00000006004a
:100cc8000000fa00e282a900efff07000080fa00a6
:100cd800000006000000fa00e282a800eaff070010
:100ce8000080fa00000006000200fa00000f7800f9
:100cf800000f20001e0060004480de0010178800ee
:100d0800f4ff07001e0078006f00600010178800cd
:100d1800f0ff07000080fa00000006000400fa0057
:100d2800204798002e4090000000fb00000f78003c
:100d3800000f20001e0060004480de0010178800ad
:100d4800e4ff07001e0078006f006000101788009d
:100d5800e0ff07000080fa00000006000200fa0029
:100d6800000f78001e00780010178800d4ff0700d5
:100d78000080fa00000006000400fa00100798003e
:100d88000000eb00000f7800060037001e00780016
:100d98009e00900000804000104078001e0fe80080
:100da800deff07001e0078009e00900000804000d3
:100db800104078000004e000f4ff3a000080fa00d8
:100dc800000006000000fa0020002000e3ff0700f2
:100dd80080002000e1ff07000080fa000000060004
:100de8000000fa000000eb00dcff0700f000200024
:100df800daff07000080fa00000006000000fa0091
:100e08000000eb00d5ff070010002000d3ff07000b
:100e18000080fa00000006000000fa000000eb0065
:100e2800ceff070060002000ccff07000080fa001a
:100e3800000006000000fa0080002000c7ff07003d
:100e48000000eb00c5ff07000080fa000000060064
:100e58000000fa00c0002000c0ff07000000eb00ff
:100e6800beff07000080fa00000006000000fa003c
:100e780010002000b9ff070040002000b7ff07005e
:100e88000080fa00000006000000fa0010002000b0
:100e9800b2ff07000000eb00b0ff07000080fa0077
:100ea800000006000000fa0010002000abff070059
:100eb800c0002000a9ff07000080fa00000006001b
:100ec8000000fa0010002000a4ff070080002000a6
:100ed800a2ff07000080fa00000006000000fa00e8
:100ee800e222ef00de82a900dea2a900de62a900ec
:100ef800de42a900de22a900de02a90020002000af
:100f080096ff0700afff0700aeff0700b4ff07001a
:100f1800baff0700c0ff07000080fa0000000600c3
:020000040000fa
:100f2800f03fb1000180b10006003500ee03090072
:100f380000000000403fb1000180b100fbff3d0010
:100f48001000b000203fb00002003500008009000a
:080f580000000000000006008b
:020000040000fa
:100f6000000800000204000000000000020c000065
:0c0f70000200000000000000be0780002e
:020000040000fa
:040f7c000000000071
:00000001FF
